{
	"data": {
		"bytecode": {
			"linkReferences": {},
			"object": "608060405260405162002d6f38038062002d6f833981810160405281019062000029919062000654565b82620000766040518060400160405280601181526020017f616464726573732062616c616e63653a20000000000000000000000000000000815250476200041360201b62000cab1760201c565b620001056040518060400160405280600a81526020017f62616c616e6365733a200000000000000000000000000000000000000000000081525082600160028110620000c757620000c662000a8b565b5b602002015183600060028110620000e357620000e262000a8b565b5b6020020151620000f4919062000907565b6200041360201b62000cab1760201c565b806001600281106200011c576200011b62000a8b565b5b60200201518160006002811062000138576200013762000a8b565b5b602002015162000149919062000907565b4710156200018e576040517f08c379a000000000000000000000000000000000000000000000000000000000815260040162000185906200080a565b60405180910390fd5b428311620001d3576040517f08c379a0000000000000000000000000000000000000000000000000000000008152600401620001ca906200082c565b60405180910390fd5b6000821162000219576040517f08c379a000000000000000000000000000000000000000000000000000000000815260040162000210906200084e565b60405180910390fd5b60005b6002811015620003f95760008682600281106200023e576200023d62000a8b565b5b60200201519050600260008273ffffffffffffffffffffffffffffffffffffffff1673ffffffffffffffffffffffffffffffffffffffff16815260200190815260200160002060009054906101000a900460ff1615620002d5576040517f08c379a0000000000000000000000000000000000000000000000000000000008152600401620002cc90620007e8565b60405180910390fd5b8060008360028110620002ed57620002ec62000a8b565b5b0160006101000a81548173ffffffffffffffffffffffffffffffffffffffff021916908373ffffffffffffffffffffffffffffffffffffffff1602179055506001600260008373ffffffffffffffffffffffffffffffffffffffff1673ffffffffffffffffffffffffffffffffffffffff16815260200190815260200160002060006101000a81548160ff0219169083151502179055508582600281106200039a576200039962000a8b565b5b6020020151600360008373ffffffffffffffffffffffffffffffffffffffff1673ffffffffffffffffffffffffffffffffffffffff16815260200190815260200160002081905550508080620003f09062000a0e565b9150506200021c565b508260058190555081600481905550505050505062000c07565b620004b582826040516024016200042c929190620007b4565b6040516020818303038152906040527fb60e72cc000000000000000000000000000000000000000000000000000000007bffffffffffffffffffffffffffffffffffffffffffffffffffffffff19166020820180517bffffffffffffffffffffffffffffffffffffffffffffffffffffffff8381831617835250505050620004b960201b60201c565b5050565b60008151905060006a636f6e736f6c652e6c6f679050602083016000808483855afa5050505050565b6000620004f9620004f38462000899565b62000870565b9050808285602086028201111562000516576200051562000aee565b5b60005b858110156200054a57816200052f8882620005c6565b84526020840193506020830192505060018101905062000519565b5050509392505050565b60006200056b6200056584620008c2565b62000870565b9050808285602086028201111562000588576200058762000aee565b5b60005b85811015620005bc5781620005a188826200063d565b8452602084019350602083019250506001810190506200058b565b5050509392505050565b600081519050620005d78162000bd3565b92915050565b600082601f830112620005f557620005f462000ae9565b5b600262000604848285620004e2565b91505092915050565b600082601f83011262000625576200062462000ae9565b5b60026200063484828562000554565b91505092915050565b6000815190506200064e8162000bed565b92915050565b60008060008060c0858703121562000671576200067062000af3565b5b60006200068187828801620005dd565b945050604062000694878288016200060d565b9350506080620006a7878288016200063d565b92505060a0620006ba878288016200063d565b91505092959194509250565b6000620006d382620008eb565b620006df8185620008f6565b9350620006f1818560208601620009a2565b620006fc8162000af8565b840191505092915050565b600062000716601383620008f6565b9150620007238262000b09565b602082019050919050565b60006200073d603c83620008f6565b91506200074a8262000b32565b604082019050919050565b600062000764601883620008f6565b9150620007718262000b81565b602082019050919050565b60006200078b601c83620008f6565b9150620007988262000baa565b602082019050919050565b620007ae8162000998565b82525050565b60006040820190508181036000830152620007d08185620006c6565b9050620007e16020830184620007a3565b9392505050565b60006020820190508181036000830152620008038162000707565b9050919050565b6000602082019050818103600083015262000825816200072e565b9050919050565b60006020820190508181036000830152620008478162000755565b9050919050565b6000602082019050818103600083015262000869816200077c565b9050919050565b60006200087c6200088f565b90506200088a8282620009d8565b919050565b6000604051905090565b600067ffffffffffffffff821115620008b757620008b662000aba565b5b602082029050919050565b600067ffffffffffffffff821115620008e057620008df62000aba565b5b602082029050919050565b600081519050919050565b600082825260208201905092915050565b6000620009148262000998565b9150620009218362000998565b9250827fffffffffffffffffffffffffffffffffffffffffffffffffffffffffffffffff0382111562000959576200095862000a5c565b5b828201905092915050565b6000620009718262000978565b9050919050565b600073ffffffffffffffffffffffffffffffffffffffff82169050919050565b6000819050919050565b60005b83811015620009c2578082015181840152602081019050620009a5565b83811115620009d2576000848401525b50505050565b620009e38262000af8565b810181811067ffffffffffffffff8211171562000a055762000a0462000aba565b5b80604052505050565b600062000a1b8262000998565b91507fffffffffffffffffffffffffffffffffffffffffffffffffffffffffffffffff82141562000a515762000a5062000a5c565b5b600182019050919050565b7f4e487b7100000000000000000000000000000000000000000000000000000000600052601160045260246000fd5b7f4e487b7100000000000000000000000000000000000000000000000000000000600052603260045260246000fd5b7f4e487b7100000000000000000000000000000000000000000000000000000000600052604160045260246000fd5b600080fd5b600080fd5b600080fd5b6000601f19601f8301169050919050565b7f75736572206d75737420626520756e6971756500000000000000000000000000600082015250565b7f62616c616e6365206f6620636f6e7472616374206d757374206265203e3d207460008201527f6f2074686520746f74616c2062616c616e6365206f6620757365727300000000602082015250565b7f45787069726174696f6e206d757374206265203e206e6f770000000000000000600082015250565b7f4368616c6c656e676520706572696f64206d757374206265203e203000000000600082015250565b62000bde8162000964565b811462000bea57600080fd5b50565b62000bf88162000998565b811462000c0457600080fd5b50565b6121588062000c176000396000f3fe60806040526004361061009c5760003560e01c80638622a689116100645780638622a689146101ac578063a0ff4999146101d7578063affed0e014610200578063d0e30db01461022b578063d279af3a14610235578063f3f480d91461025e5761009c565b806321e66868146100a157806327e235e3146100de578063365b98b21461011b5780633ccfd60b146101585780634209fff11461016f575b600080fd5b3480156100ad57600080fd5b506100c860048036038101906100c39190611327565b610289565b6040516100d5919061181e565b60405180910390f35b3480156100ea57600080fd5b50610105600480360381019061010091906112fa565b610372565b6040516101129190611a2e565b60405180910390f35b34801561012757600080fd5b50610142600480360381019061013d919061142d565b61038a565b60405161014f9190611803565b60405180910390f35b34801561016457600080fd5b5061016d6103c0565b005b34801561017b57600080fd5b50610196600480360381019061019191906112fa565b610618565b6040516101a3919061181e565b60405180910390f35b3480156101b857600080fd5b506101c1610638565b6040516101ce9190611a2e565b60405180910390f35b3480156101e357600080fd5b506101fe60048036038101906101f991906113be565b61063e565b005b34801561020c57600080fd5b50610215610aa5565b6040516102229190611a2e565b60405180910390f35b610233610aab565b005b34801561024157600080fd5b5061025c6004803603810190610257919061142d565b610b94565b005b34801561026a57600080fd5b50610273610ca5565b6040516102809190611a2e565b60405180910390f35b600080600090505b60028110156103635760006102f88883600281106102b2576102b1611d89565b5b60200201516102ea8988886040516020016102cf9392919061178b565b60405160208183030381529060405280519060200120610d47565b610d7790919063ffffffff16565b73ffffffffffffffffffffffffffffffffffffffff1686836002811061032157610320611d89565b5b602002015173ffffffffffffffffffffffffffffffffffffffff161490508061034f57600092505050610369565b50808061035b90611caa565b915050610291565b50600190505b95945050505050565b60036020528060005260406000206000915090505481565b6000816002811061039a57600080fd5b016000915054906101000a900473ffffffffffffffffffffffffffffffffffffffff1681565b600260003373ffffffffffffffffffffffffffffffffffffffff1673ffffffffffffffffffffffffffffffffffffffff16815260200190815260200160002060009054906101000a900460ff1661044c576040517f08c379a00000000000000000000000000000000000000000000000000000000081526004016104439061198e565b60405180910390fd5b600554421015610491576040517f08c379a00000000000000000000000000000000000000000000000000000000081526004016104889061190e565b60405180910390fd5b6000600360003373ffffffffffffffffffffffffffffffffffffffff1673ffffffffffffffffffffffffffffffffffffffff1681526020019081526020016000205490506000600360003373ffffffffffffffffffffffffffffffffffffffff1673ffffffffffffffffffffffffffffffffffffffff1681526020019081526020016000208190555060003373ffffffffffffffffffffffffffffffffffffffff1682604051610540906117ee565b60006040518083038185875af1925050503d806000811461057d576040519150601f19603f3d011682016040523d82523d6000602084013e610582565b606091505b50509050806105c6576040517f08c379a00000000000000000000000000000000000000000000000000000000081526004016105bd906118ee565b60405180910390fd5b3373ffffffffffffffffffffffffffffffffffffffff167f884edad9ce6fa2440d8a54cc123490eb96d2768479d49ff9c7366125a94243648360405161060c9190611a2e565b60405180910390a25050565b60026020528060005260406000206000915054906101000a900460ff1681565b60055481565b600260003373ffffffffffffffffffffffffffffffffffffffff1673ffffffffffffffffffffffffffffffffffffffff16815260200190815260200160002060009054906101000a900460ff166106ca576040517f08c379a00000000000000000000000000000000000000000000000000000000081526004016106c19061198e565b60405180910390fd5b8083836106d561106a565b60005b600281101561077457600081600281106106f5576106f4611d89565b5b0160009054906101000a900473ffffffffffffffffffffffffffffffffffffffff1682826002811061072a57610729611d89565b5b602002019073ffffffffffffffffffffffffffffffffffffffff16908173ffffffffffffffffffffffffffffffffffffffff1681525050808061076c90611caa565b9150506106d8565b506107828430838686610289565b6107c1576040517f08c379a00000000000000000000000000000000000000000000000000000000081526004016107b89061192e565b60405180910390fd5b866108016040518060400160405280601181526020017f616464726573732062616c616e63653a2000000000000000000000000000000081525047610cab565b61087b6040518060400160405280600a81526020017f62616c616e6365733a20000000000000000000000000000000000000000000008152508260016002811061084e5761084d611d89565b5b60200201518360006002811061086757610866611d89565b5b60200201516108769190611b70565b610cab565b8060016002811061088f5761088e611d89565b5b6020020151816000600281106108a8576108a7611d89565b5b60200201516108b79190611b70565b4710156108f9576040517f08c379a00000000000000000000000000000000000000000000000000000000081526004016108f0906119ae565b60405180910390fd5b600554421061093d576040517f08c379a0000000000000000000000000000000000000000000000000000000008152600401610934906119ee565b60405180910390fd5b6006548711610981576040517f08c379a00000000000000000000000000000000000000000000000000000000081526004016109789061196e565b60405180910390fd5b60005b6002811015610a2f578881600281106109a05761099f611d89565b5b6020020151600360008084600281106109bc576109bb611d89565b5b0160009054906101000a900473ffffffffffffffffffffffffffffffffffffffff1673ffffffffffffffffffffffffffffffffffffffff1673ffffffffffffffffffffffffffffffffffffffff168152602001908152602001600020819055508080610a2790611caa565b915050610984565b508660068190555060045442610a459190611b70565b6005819055503373ffffffffffffffffffffffffffffffffffffffff167f5050c6e2a6fc173775ce4852f893c9e5aaeff00101f3aef75e0ec263cf083ca9600654604051610a939190611a2e565b60405180910390a25050505050505050565b60065481565b60003411610aee576040517f08c379a0000000000000000000000000000000000000000000000000000000008152600401610ae590611a0e565b60405180910390fd5b34600360003373ffffffffffffffffffffffffffffffffffffffff1673ffffffffffffffffffffffffffffffffffffffff1681526020019081526020016000206000828254610b3d9190611b70565b925050819055503373ffffffffffffffffffffffffffffffffffffffff167fe1fffcc4923d04b559f4d29a8bfc6cda04eb5b0d3c460751c2402c5c5cc9109c34604051610b8a9190611a2e565b60405180910390a2565b600260003373ffffffffffffffffffffffffffffffffffffffff1673ffffffffffffffffffffffffffffffffffffffff16815260200190815260200160002060009054906101000a900460ff16610c20576040517f08c379a0000000000000000000000000000000000000000000000000000000008152600401610c179061198e565b60405180910390fd5b428111610c62576040517f08c379a0000000000000000000000000000000000000000000000000000000008152600401610c59906119ce565b60405180910390fd5b806005819055507f51f0a74bb67d71de6dfe418dddfe83883d35ce9341033fabc58a893c21e713e2600554604051610c9a9190611a2e565b60405180910390a150565b60045481565b610d438282604051602401610cc192919061187e565b6040516020818303038152906040527fb60e72cc000000000000000000000000000000000000000000000000000000007bffffffffffffffffffffffffffffffffffffffffffffffffffffffff19166020820180517bffffffffffffffffffffffffffffffffffffffffffffffffffffffff8381831617835250505050610d9e565b5050565b600081604051602001610d5a91906117c8565b604051602081830303815290604052805190602001209050919050565b6000806000610d868585610dc7565b91509150610d9381610e19565b819250505092915050565b60008151905060006a636f6e736f6c652e6c6f679050602083016000808483855afa5050505050565b600080604183511415610e095760008060006020860151925060408601519150606086015160001a9050610dfd87828585610f87565b94509450505050610e12565b60006002915091505b9250929050565b60006004811115610e2d57610e2c611d5a565b5b816004811115610e4057610e3f611d5a565b5b1415610e4b57610f84565b60016004811115610e5f57610e5e611d5a565b5b816004811115610e7257610e71611d5a565b5b1415610eb3576040517f08c379a0000000000000000000000000000000000000000000000000000000008152600401610eaa906118ae565b60405180910390fd5b60026004811115610ec757610ec6611d5a565b5b816004811115610eda57610ed9611d5a565b5b1415610f1b576040517f08c379a0000000000000000000000000000000000000000000000000000000008152600401610f12906118ce565b60405180910390fd5b60036004811115610f2f57610f2e611d5a565b5b816004811115610f4257610f41611d5a565b5b1415610f83576040517f08c379a0000000000000000000000000000000000000000000000000000000008152600401610f7a9061194e565b60405180910390fd5b5b50565b6000807f7fffffffffffffffffffffffffffffff5d576e7357a4501ddfe92f46681b20a08360001c1115610fc2576000600391509150611061565b600060018787878760405160008152602001604052604051610fe79493929190611839565b6020604051602081039080840390855afa158015611009573d6000803e3d6000fd5b505050602060405103519050600073ffffffffffffffffffffffffffffffffffffffff168173ffffffffffffffffffffffffffffffffffffffff16141561105857600060019250925050611061565b80600092509250505b94509492505050565b6040518060400160405280600290602082028036833780820191505090505090565b600061109f61109a84611a6e565b611a49565b905080828560208602820111156110b9576110b8611dec565b5b60005b858110156110e957816110cf8882611221565b8452602084019350602083019250506001810190506110bc565b5050509392505050565b600061110661110184611a94565b611a49565b905080828560208602820111156111205761111f611dec565b5b60005b8581101561116e57813567ffffffffffffffff81111561114657611145611de7565b5b80860161115389826112b7565b85526020850194506020840193505050600181019050611123565b5050509392505050565b600061118b61118684611aba565b611a49565b905080828560208602820111156111a5576111a4611dec565b5b60005b858110156111d557816111bb88826112e5565b8452602084019350602083019250506001810190506111a8565b5050509392505050565b60006111f26111ed84611ae0565b611a49565b90508281526020810184848401111561120e5761120d611df1565b5b611219848285611c37565b509392505050565b600081359050611230816120f4565b92915050565b600082601f83011261124b5761124a611de7565b5b600261125884828561108c565b91505092915050565b600082601f83011261127657611275611de7565b5b60026112838482856110f3565b91505092915050565b600082601f8301126112a1576112a0611de7565b5b60026112ae848285611178565b91505092915050565b600082601f8301126112cc576112cb611de7565b5b81356112dc8482602086016111df565b91505092915050565b6000813590506112f48161210b565b92915050565b6000602082840312156113105761130f611dfb565b5b600061131e84828501611221565b91505092915050565b600080600080600060e0868803121561134357611342611dfb565b5b600086013567ffffffffffffffff81111561136157611360611df6565b5b61136d88828901611261565b955050602061137e88828901611221565b945050604061138f88828901611236565b93505060806113a08882890161128c565b92505060c06113b1888289016112e5565b9150509295509295909350565b6000806000608084860312156113d7576113d6611dfb565b5b60006113e58682870161128c565b93505060406113f6868287016112e5565b925050606084013567ffffffffffffffff81111561141757611416611df6565b5b61142386828701611261565b9150509250925092565b60006020828403121561144357611442611dfb565b5b6000611451848285016112e5565b91505092915050565b60006114668383611756565b60208301905092915050565b61147b81611bd8565b82525050565b61149261148d82611bc6565b611cf3565b82525050565b6114a181611b1b565b6114ab8184611b3e565b92506114b682611b11565b8060005b838110156114e75781516114ce878261145a565b96506114d983611b31565b9250506001810190506114ba565b505050505050565b6114f881611bea565b82525050565b61150781611bf6565b82525050565b61151e61151982611bf6565b611d05565b82525050565b600061152f82611b26565b6115398185611b54565b9350611549818560208601611c46565b61155281611e00565b840191505092915050565b600061156a601883611b54565b915061157582611e1e565b602082019050919050565b600061158d601f83611b54565b915061159882611e47565b602082019050919050565b60006115b0601c83611b65565b91506115bb82611e70565b601c82019050919050565b60006115d3601483611b54565b91506115de82611e99565b602082019050919050565b60006115f6602483611b54565b915061160182611ec2565b604082019050919050565b6000611619601183611b54565b915061162482611f11565b602082019050919050565b600061163c602283611b54565b915061164782611f3a565b604082019050919050565b600061165f602c83611b54565b915061166a82611f89565b604082019050919050565b6000611682600883611b54565b915061168d82611fd8565b602082019050919050565b60006116a5603c83611b54565b91506116b082612001565b604082019050919050565b60006116c8601883611b54565b91506116d382612050565b602082019050919050565b60006116eb601883611b54565b91506116f682612079565b602082019050919050565b600061170e600083611b49565b9150611719826120a2565b600082019050919050565b6000611731602883611b54565b915061173c826120a5565b604082019050919050565b61175081611c20565b82525050565b61175f81611c20565b82525050565b61177661177182611c20565b611d21565b82525050565b61178581611c2a565b82525050565b60006117978286611481565b6014820191506117a78285611498565b6040820191506117b78284611765565b602082019150819050949350505050565b60006117d3826115a3565b91506117df828461150d565b60208201915081905092915050565b60006117f982611701565b9150819050919050565b60006020820190506118186000830184611472565b92915050565b600060208201905061183360008301846114ef565b92915050565b600060808201905061184e60008301876114fe565b61185b602083018661177c565b61186860408301856114fe565b61187560608301846114fe565b95945050505050565b600060408201905081810360008301526118988185611524565b90506118a76020830184611747565b9392505050565b600060208201905081810360008301526118c78161155d565b9050919050565b600060208201905081810360008301526118e781611580565b9050919050565b60006020820190508181036000830152611907816115c6565b9050919050565b60006020820190508181036000830152611927816115e9565b9050919050565b600060208201905081810360008301526119478161160c565b9050919050565b600060208201905081810360008301526119678161162f565b9050919050565b6000602082019050818103600083015261198781611652565b9050919050565b600060208201905081810360008301526119a781611675565b9050919050565b600060208201905081810360008301526119c781611698565b9050919050565b600060208201905081810360008301526119e7816116bb565b9050919050565b60006020820190508181036000830152611a07816116de565b9050919050565b60006020820190508181036000830152611a2781611724565b9050919050565b6000602082019050611a436000830184611747565b92915050565b6000611a53611a64565b9050611a5f8282611c79565b919050565b6000604051905090565b600067ffffffffffffffff821115611a8957611a88611db8565b5b602082029050919050565b600067ffffffffffffffff821115611aaf57611aae611db8565b5b602082029050919050565b600067ffffffffffffffff821115611ad557611ad4611db8565b5b602082029050919050565b600067ffffffffffffffff821115611afb57611afa611db8565b5b611b0482611e00565b9050602081019050919050565b6000819050919050565b600060029050919050565b600081519050919050565b6000602082019050919050565b600081905092915050565b600081905092915050565b600082825260208201905092915050565b600081905092915050565b6000611b7b82611c20565b9150611b8683611c20565b9250827fffffffffffffffffffffffffffffffffffffffffffffffffffffffffffffffff03821115611bbb57611bba611d2b565b5b828201905092915050565b6000611bd182611c00565b9050919050565b6000611be382611c00565b9050919050565b60008115159050919050565b6000819050919050565b600073ffffffffffffffffffffffffffffffffffffffff82169050919050565b6000819050919050565b600060ff82169050919050565b82818337600083830152505050565b60005b83811015611c64578082015181840152602081019050611c49565b83811115611c73576000848401525b50505050565b611c8282611e00565b810181811067ffffffffffffffff82111715611ca157611ca0611db8565b5b80604052505050565b6000611cb582611c20565b91507fffffffffffffffffffffffffffffffffffffffffffffffffffffffffffffffff821415611ce857611ce7611d2b565b5b600182019050919050565b6000611cfe82611d0f565b9050919050565b6000819050919050565b6000611d1a82611e11565b9050919050565b6000819050919050565b7f4e487b7100000000000000000000000000000000000000000000000000000000600052601160045260246000fd5b7f4e487b7100000000000000000000000000000000000000000000000000000000600052602160045260246000fd5b7f4e487b7100000000000000000000000000000000000000000000000000000000600052603260045260246000fd5b7f4e487b7100000000000000000000000000000000000000000000000000000000600052604160045260246000fd5b600080fd5b600080fd5b600080fd5b600080fd5b600080fd5b6000601f19601f8301169050919050565b60008160601b9050919050565b7f45434453413a20696e76616c6964207369676e61747572650000000000000000600082015250565b7f45434453413a20696e76616c6964207369676e6174757265206c656e67746800600082015250565b7f19457468657265756d205369676e6564204d6573736167653a0a333200000000600082015250565b7f4661696c656420746f2073656e64204574686572000000000000000000000000600082015250565b7f4368616c6c656e676520706572696f6420686173206e6f74206578706972656460008201527f2079657400000000000000000000000000000000000000000000000000000000602082015250565b7f496e76616c6964207369676e6174757265000000000000000000000000000000600082015250565b7f45434453413a20696e76616c6964207369676e6174757265202773272076616c60008201527f7565000000000000000000000000000000000000000000000000000000000000602082015250565b7f4e6f6e6365206d7573742062652067726561746572207468616e20746865206360008201527f757272656e74206e6f6e63650000000000000000000000000000000000000000602082015250565b7f4e6f742075736572000000000000000000000000000000000000000000000000600082015250565b7f62616c616e6365206f6620636f6e7472616374206d757374206265203e3d207460008201527f6f2074686520746f74616c2062616c616e6365206f6620757365727300000000602082015250565b7f45787069726174696f6e206d757374206265203e206e6f770000000000000000600082015250565b7f45787069726564206368616c6c656e676520706572696f640000000000000000600082015250565b50565b7f4465706f73697420616d6f756e74206d7573742062652067726561746572207460008201527f68616e207a65726f000000000000000000000000000000000000000000000000602082015250565b6120fd81611bc6565b811461210857600080fd5b50565b61211481611c20565b811461211f57600080fd5b5056fea26469706673582212201d3adc5c83cc257f6c5179bb23c3e3240eee657b526cbaf0caa7298e7f52064d64736f6c63430008060033",
			"opcodes": "PUSH1 0x80 PUSH1 0x40 MSTORE PUSH1 0x40 MLOAD PUSH3 0x2D6F CODESIZE SUB DUP1 PUSH3 0x2D6F DUP4 CODECOPY DUP2 DUP2 ADD PUSH1 0x40 MSTORE DUP2 ADD SWAP1 PUSH3 0x29 SWAP2 SWAP1 PUSH3 0x654 JUMP JUMPDEST DUP3 PUSH3 0x76 PUSH1 0x40 MLOAD DUP1 PUSH1 0x40 ADD PUSH1 0x40 MSTORE DUP1 PUSH1 0x11 DUP2 MSTORE PUSH1 0x20 ADD PUSH32 0x616464726573732062616C616E63653A20000000000000000000000000000000 DUP2 MSTORE POP SELFBALANCE PUSH3 0x413 PUSH1 0x20 SHL PUSH3 0xCAB OR PUSH1 0x20 SHR JUMP JUMPDEST PUSH3 0x105 PUSH1 0x40 MLOAD DUP1 PUSH1 0x40 ADD PUSH1 0x40 MSTORE DUP1 PUSH1 0xA DUP2 MSTORE PUSH1 0x20 ADD PUSH32 0x62616C616E6365733A2000000000000000000000000000000000000000000000 DUP2 MSTORE POP DUP3 PUSH1 0x1 PUSH1 0x2 DUP2 LT PUSH3 0xC7 JUMPI PUSH3 0xC6 PUSH3 0xA8B JUMP JUMPDEST JUMPDEST PUSH1 0x20 MUL ADD MLOAD DUP4 PUSH1 0x0 PUSH1 0x2 DUP2 LT PUSH3 0xE3 JUMPI PUSH3 0xE2 PUSH3 0xA8B JUMP JUMPDEST JUMPDEST PUSH1 0x20 MUL ADD MLOAD PUSH3 0xF4 SWAP2 SWAP1 PUSH3 0x907 JUMP JUMPDEST PUSH3 0x413 PUSH1 0x20 SHL PUSH3 0xCAB OR PUSH1 0x20 SHR JUMP JUMPDEST DUP1 PUSH1 0x1 PUSH1 0x2 DUP2 LT PUSH3 0x11C JUMPI PUSH3 0x11B PUSH3 0xA8B JUMP JUMPDEST JUMPDEST PUSH1 0x20 MUL ADD MLOAD DUP2 PUSH1 0x0 PUSH1 0x2 DUP2 LT PUSH3 0x138 JUMPI PUSH3 0x137 PUSH3 0xA8B JUMP JUMPDEST JUMPDEST PUSH1 0x20 MUL ADD MLOAD PUSH3 0x149 SWAP2 SWAP1 PUSH3 0x907 JUMP JUMPDEST SELFBALANCE LT ISZERO PUSH3 0x18E JUMPI PUSH1 0x40 MLOAD PUSH32 0x8C379A000000000000000000000000000000000000000000000000000000000 DUP2 MSTORE PUSH1 0x4 ADD PUSH3 0x185 SWAP1 PUSH3 0x80A JUMP JUMPDEST PUSH1 0x40 MLOAD DUP1 SWAP2 SUB SWAP1 REVERT JUMPDEST TIMESTAMP DUP4 GT PUSH3 0x1D3 JUMPI PUSH1 0x40 MLOAD PUSH32 0x8C379A000000000000000000000000000000000000000000000000000000000 DUP2 MSTORE PUSH1 0x4 ADD PUSH3 0x1CA SWAP1 PUSH3 0x82C JUMP JUMPDEST PUSH1 0x40 MLOAD DUP1 SWAP2 SUB SWAP1 REVERT JUMPDEST PUSH1 0x0 DUP3 GT PUSH3 0x219 JUMPI PUSH1 0x40 MLOAD PUSH32 0x8C379A000000000000000000000000000000000000000000000000000000000 DUP2 MSTORE PUSH1 0x4 ADD PUSH3 0x210 SWAP1 PUSH3 0x84E JUMP JUMPDEST PUSH1 0x40 MLOAD DUP1 SWAP2 SUB SWAP1 REVERT JUMPDEST PUSH1 0x0 JUMPDEST PUSH1 0x2 DUP2 LT ISZERO PUSH3 0x3F9 JUMPI PUSH1 0x0 DUP7 DUP3 PUSH1 0x2 DUP2 LT PUSH3 0x23E JUMPI PUSH3 0x23D PUSH3 0xA8B JUMP JUMPDEST JUMPDEST PUSH1 0x20 MUL ADD MLOAD SWAP1 POP PUSH1 0x2 PUSH1 0x0 DUP3 PUSH20 0xFFFFFFFFFFFFFFFFFFFFFFFFFFFFFFFFFFFFFFFF AND PUSH20 0xFFFFFFFFFFFFFFFFFFFFFFFFFFFFFFFFFFFFFFFF AND DUP2 MSTORE PUSH1 0x20 ADD SWAP1 DUP2 MSTORE PUSH1 0x20 ADD PUSH1 0x0 KECCAK256 PUSH1 0x0 SWAP1 SLOAD SWAP1 PUSH2 0x100 EXP SWAP1 DIV PUSH1 0xFF AND ISZERO PUSH3 0x2D5 JUMPI PUSH1 0x40 MLOAD PUSH32 0x8C379A000000000000000000000000000000000000000000000000000000000 DUP2 MSTORE PUSH1 0x4 ADD PUSH3 0x2CC SWAP1 PUSH3 0x7E8 JUMP JUMPDEST PUSH1 0x40 MLOAD DUP1 SWAP2 SUB SWAP1 REVERT JUMPDEST DUP1 PUSH1 0x0 DUP4 PUSH1 0x2 DUP2 LT PUSH3 0x2ED JUMPI PUSH3 0x2EC PUSH3 0xA8B JUMP JUMPDEST JUMPDEST ADD PUSH1 0x0 PUSH2 0x100 EXP DUP2 SLOAD DUP2 PUSH20 0xFFFFFFFFFFFFFFFFFFFFFFFFFFFFFFFFFFFFFFFF MUL NOT AND SWAP1 DUP4 PUSH20 0xFFFFFFFFFFFFFFFFFFFFFFFFFFFFFFFFFFFFFFFF AND MUL OR SWAP1 SSTORE POP PUSH1 0x1 PUSH1 0x2 PUSH1 0x0 DUP4 PUSH20 0xFFFFFFFFFFFFFFFFFFFFFFFFFFFFFFFFFFFFFFFF AND PUSH20 0xFFFFFFFFFFFFFFFFFFFFFFFFFFFFFFFFFFFFFFFF AND DUP2 MSTORE PUSH1 0x20 ADD SWAP1 DUP2 MSTORE PUSH1 0x20 ADD PUSH1 0x0 KECCAK256 PUSH1 0x0 PUSH2 0x100 EXP DUP2 SLOAD DUP2 PUSH1 0xFF MUL NOT AND SWAP1 DUP4 ISZERO ISZERO MUL OR SWAP1 SSTORE POP DUP6 DUP3 PUSH1 0x2 DUP2 LT PUSH3 0x39A JUMPI PUSH3 0x399 PUSH3 0xA8B JUMP JUMPDEST JUMPDEST PUSH1 0x20 MUL ADD MLOAD PUSH1 0x3 PUSH1 0x0 DUP4 PUSH20 0xFFFFFFFFFFFFFFFFFFFFFFFFFFFFFFFFFFFFFFFF AND PUSH20 0xFFFFFFFFFFFFFFFFFFFFFFFFFFFFFFFFFFFFFFFF AND DUP2 MSTORE PUSH1 0x20 ADD SWAP1 DUP2 MSTORE PUSH1 0x20 ADD PUSH1 0x0 KECCAK256 DUP2 SWAP1 SSTORE POP POP DUP1 DUP1 PUSH3 0x3F0 SWAP1 PUSH3 0xA0E JUMP JUMPDEST SWAP2 POP POP PUSH3 0x21C JUMP JUMPDEST POP DUP3 PUSH1 0x5 DUP2 SWAP1 SSTORE POP DUP2 PUSH1 0x4 DUP2 SWAP1 SSTORE POP POP POP POP POP POP PUSH3 0xC07 JUMP JUMPDEST PUSH3 0x4B5 DUP3 DUP3 PUSH1 0x40 MLOAD PUSH1 0x24 ADD PUSH3 0x42C SWAP3 SWAP2 SWAP1 PUSH3 0x7B4 JUMP JUMPDEST PUSH1 0x40 MLOAD PUSH1 0x20 DUP2 DUP4 SUB SUB DUP2 MSTORE SWAP1 PUSH1 0x40 MSTORE PUSH32 0xB60E72CC00000000000000000000000000000000000000000000000000000000 PUSH28 0xFFFFFFFFFFFFFFFFFFFFFFFFFFFFFFFFFFFFFFFFFFFFFFFFFFFFFFFF NOT AND PUSH1 0x20 DUP3 ADD DUP1 MLOAD PUSH28 0xFFFFFFFFFFFFFFFFFFFFFFFFFFFFFFFFFFFFFFFFFFFFFFFFFFFFFFFF DUP4 DUP2 DUP4 AND OR DUP4 MSTORE POP POP POP POP PUSH3 0x4B9 PUSH1 0x20 SHL PUSH1 0x20 SHR JUMP JUMPDEST POP POP JUMP JUMPDEST PUSH1 0x0 DUP2 MLOAD SWAP1 POP PUSH1 0x0 PUSH11 0x636F6E736F6C652E6C6F67 SWAP1 POP PUSH1 0x20 DUP4 ADD PUSH1 0x0 DUP1 DUP5 DUP4 DUP6 GAS STATICCALL POP POP POP POP POP JUMP JUMPDEST PUSH1 0x0 PUSH3 0x4F9 PUSH3 0x4F3 DUP5 PUSH3 0x899 JUMP JUMPDEST PUSH3 0x870 JUMP JUMPDEST SWAP1 POP DUP1 DUP3 DUP6 PUSH1 0x20 DUP7 MUL DUP3 ADD GT ISZERO PUSH3 0x516 JUMPI PUSH3 0x515 PUSH3 0xAEE JUMP JUMPDEST JUMPDEST PUSH1 0x0 JUMPDEST DUP6 DUP2 LT ISZERO PUSH3 0x54A JUMPI DUP2 PUSH3 0x52F DUP9 DUP3 PUSH3 0x5C6 JUMP JUMPDEST DUP5 MSTORE PUSH1 0x20 DUP5 ADD SWAP4 POP PUSH1 0x20 DUP4 ADD SWAP3 POP POP PUSH1 0x1 DUP2 ADD SWAP1 POP PUSH3 0x519 JUMP JUMPDEST POP POP POP SWAP4 SWAP3 POP POP POP JUMP JUMPDEST PUSH1 0x0 PUSH3 0x56B PUSH3 0x565 DUP5 PUSH3 0x8C2 JUMP JUMPDEST PUSH3 0x870 JUMP JUMPDEST SWAP1 POP DUP1 DUP3 DUP6 PUSH1 0x20 DUP7 MUL DUP3 ADD GT ISZERO PUSH3 0x588 JUMPI PUSH3 0x587 PUSH3 0xAEE JUMP JUMPDEST JUMPDEST PUSH1 0x0 JUMPDEST DUP6 DUP2 LT ISZERO PUSH3 0x5BC JUMPI DUP2 PUSH3 0x5A1 DUP9 DUP3 PUSH3 0x63D JUMP JUMPDEST DUP5 MSTORE PUSH1 0x20 DUP5 ADD SWAP4 POP PUSH1 0x20 DUP4 ADD SWAP3 POP POP PUSH1 0x1 DUP2 ADD SWAP1 POP PUSH3 0x58B JUMP JUMPDEST POP POP POP SWAP4 SWAP3 POP POP POP JUMP JUMPDEST PUSH1 0x0 DUP2 MLOAD SWAP1 POP PUSH3 0x5D7 DUP2 PUSH3 0xBD3 JUMP JUMPDEST SWAP3 SWAP2 POP POP JUMP JUMPDEST PUSH1 0x0 DUP3 PUSH1 0x1F DUP4 ADD SLT PUSH3 0x5F5 JUMPI PUSH3 0x5F4 PUSH3 0xAE9 JUMP JUMPDEST JUMPDEST PUSH1 0x2 PUSH3 0x604 DUP5 DUP3 DUP6 PUSH3 0x4E2 JUMP JUMPDEST SWAP2 POP POP SWAP3 SWAP2 POP POP JUMP JUMPDEST PUSH1 0x0 DUP3 PUSH1 0x1F DUP4 ADD SLT PUSH3 0x625 JUMPI PUSH3 0x624 PUSH3 0xAE9 JUMP JUMPDEST JUMPDEST PUSH1 0x2 PUSH3 0x634 DUP5 DUP3 DUP6 PUSH3 0x554 JUMP JUMPDEST SWAP2 POP POP SWAP3 SWAP2 POP POP JUMP JUMPDEST PUSH1 0x0 DUP2 MLOAD SWAP1 POP PUSH3 0x64E DUP2 PUSH3 0xBED JUMP JUMPDEST SWAP3 SWAP2 POP POP JUMP JUMPDEST PUSH1 0x0 DUP1 PUSH1 0x0 DUP1 PUSH1 0xC0 DUP6 DUP8 SUB SLT ISZERO PUSH3 0x671 JUMPI PUSH3 0x670 PUSH3 0xAF3 JUMP JUMPDEST JUMPDEST PUSH1 0x0 PUSH3 0x681 DUP8 DUP3 DUP9 ADD PUSH3 0x5DD JUMP JUMPDEST SWAP5 POP POP PUSH1 0x40 PUSH3 0x694 DUP8 DUP3 DUP9 ADD PUSH3 0x60D JUMP JUMPDEST SWAP4 POP POP PUSH1 0x80 PUSH3 0x6A7 DUP8 DUP3 DUP9 ADD PUSH3 0x63D JUMP JUMPDEST SWAP3 POP POP PUSH1 0xA0 PUSH3 0x6BA DUP8 DUP3 DUP9 ADD PUSH3 0x63D JUMP JUMPDEST SWAP2 POP POP SWAP3 SWAP6 SWAP2 SWAP5 POP SWAP3 POP JUMP JUMPDEST PUSH1 0x0 PUSH3 0x6D3 DUP3 PUSH3 0x8EB JUMP JUMPDEST PUSH3 0x6DF DUP2 DUP6 PUSH3 0x8F6 JUMP JUMPDEST SWAP4 POP PUSH3 0x6F1 DUP2 DUP6 PUSH1 0x20 DUP7 ADD PUSH3 0x9A2 JUMP JUMPDEST PUSH3 0x6FC DUP2 PUSH3 0xAF8 JUMP JUMPDEST DUP5 ADD SWAP2 POP POP SWAP3 SWAP2 POP POP JUMP JUMPDEST PUSH1 0x0 PUSH3 0x716 PUSH1 0x13 DUP4 PUSH3 0x8F6 JUMP JUMPDEST SWAP2 POP PUSH3 0x723 DUP3 PUSH3 0xB09 JUMP JUMPDEST PUSH1 0x20 DUP3 ADD SWAP1 POP SWAP2 SWAP1 POP JUMP JUMPDEST PUSH1 0x0 PUSH3 0x73D PUSH1 0x3C DUP4 PUSH3 0x8F6 JUMP JUMPDEST SWAP2 POP PUSH3 0x74A DUP3 PUSH3 0xB32 JUMP JUMPDEST PUSH1 0x40 DUP3 ADD SWAP1 POP SWAP2 SWAP1 POP JUMP JUMPDEST PUSH1 0x0 PUSH3 0x764 PUSH1 0x18 DUP4 PUSH3 0x8F6 JUMP JUMPDEST SWAP2 POP PUSH3 0x771 DUP3 PUSH3 0xB81 JUMP JUMPDEST PUSH1 0x20 DUP3 ADD SWAP1 POP SWAP2 SWAP1 POP JUMP JUMPDEST PUSH1 0x0 PUSH3 0x78B PUSH1 0x1C DUP4 PUSH3 0x8F6 JUMP JUMPDEST SWAP2 POP PUSH3 0x798 DUP3 PUSH3 0xBAA JUMP JUMPDEST PUSH1 0x20 DUP3 ADD SWAP1 POP SWAP2 SWAP1 POP JUMP JUMPDEST PUSH3 0x7AE DUP2 PUSH3 0x998 JUMP JUMPDEST DUP3 MSTORE POP POP JUMP JUMPDEST PUSH1 0x0 PUSH1 0x40 DUP3 ADD SWAP1 POP DUP2 DUP2 SUB PUSH1 0x0 DUP4 ADD MSTORE PUSH3 0x7D0 DUP2 DUP6 PUSH3 0x6C6 JUMP JUMPDEST SWAP1 POP PUSH3 0x7E1 PUSH1 0x20 DUP4 ADD DUP5 PUSH3 0x7A3 JUMP JUMPDEST SWAP4 SWAP3 POP POP POP JUMP JUMPDEST PUSH1 0x0 PUSH1 0x20 DUP3 ADD SWAP1 POP DUP2 DUP2 SUB PUSH1 0x0 DUP4 ADD MSTORE PUSH3 0x803 DUP2 PUSH3 0x707 JUMP JUMPDEST SWAP1 POP SWAP2 SWAP1 POP JUMP JUMPDEST PUSH1 0x0 PUSH1 0x20 DUP3 ADD SWAP1 POP DUP2 DUP2 SUB PUSH1 0x0 DUP4 ADD MSTORE PUSH3 0x825 DUP2 PUSH3 0x72E JUMP JUMPDEST SWAP1 POP SWAP2 SWAP1 POP JUMP JUMPDEST PUSH1 0x0 PUSH1 0x20 DUP3 ADD SWAP1 POP DUP2 DUP2 SUB PUSH1 0x0 DUP4 ADD MSTORE PUSH3 0x847 DUP2 PUSH3 0x755 JUMP JUMPDEST SWAP1 POP SWAP2 SWAP1 POP JUMP JUMPDEST PUSH1 0x0 PUSH1 0x20 DUP3 ADD SWAP1 POP DUP2 DUP2 SUB PUSH1 0x0 DUP4 ADD MSTORE PUSH3 0x869 DUP2 PUSH3 0x77C JUMP JUMPDEST SWAP1 POP SWAP2 SWAP1 POP JUMP JUMPDEST PUSH1 0x0 PUSH3 0x87C PUSH3 0x88F JUMP JUMPDEST SWAP1 POP PUSH3 0x88A DUP3 DUP3 PUSH3 0x9D8 JUMP JUMPDEST SWAP2 SWAP1 POP JUMP JUMPDEST PUSH1 0x0 PUSH1 0x40 MLOAD SWAP1 POP SWAP1 JUMP JUMPDEST PUSH1 0x0 PUSH8 0xFFFFFFFFFFFFFFFF DUP3 GT ISZERO PUSH3 0x8B7 JUMPI PUSH3 0x8B6 PUSH3 0xABA JUMP JUMPDEST JUMPDEST PUSH1 0x20 DUP3 MUL SWAP1 POP SWAP2 SWAP1 POP JUMP JUMPDEST PUSH1 0x0 PUSH8 0xFFFFFFFFFFFFFFFF DUP3 GT ISZERO PUSH3 0x8E0 JUMPI PUSH3 0x8DF PUSH3 0xABA JUMP JUMPDEST JUMPDEST PUSH1 0x20 DUP3 MUL SWAP1 POP SWAP2 SWAP1 POP JUMP JUMPDEST PUSH1 0x0 DUP2 MLOAD SWAP1 POP SWAP2 SWAP1 POP JUMP JUMPDEST PUSH1 0x0 DUP3 DUP3 MSTORE PUSH1 0x20 DUP3 ADD SWAP1 POP SWAP3 SWAP2 POP POP JUMP JUMPDEST PUSH1 0x0 PUSH3 0x914 DUP3 PUSH3 0x998 JUMP JUMPDEST SWAP2 POP PUSH3 0x921 DUP4 PUSH3 0x998 JUMP JUMPDEST SWAP3 POP DUP3 PUSH32 0xFFFFFFFFFFFFFFFFFFFFFFFFFFFFFFFFFFFFFFFFFFFFFFFFFFFFFFFFFFFFFFFF SUB DUP3 GT ISZERO PUSH3 0x959 JUMPI PUSH3 0x958 PUSH3 0xA5C JUMP JUMPDEST JUMPDEST DUP3 DUP3 ADD SWAP1 POP SWAP3 SWAP2 POP POP JUMP JUMPDEST PUSH1 0x0 PUSH3 0x971 DUP3 PUSH3 0x978 JUMP JUMPDEST SWAP1 POP SWAP2 SWAP1 POP JUMP JUMPDEST PUSH1 0x0 PUSH20 0xFFFFFFFFFFFFFFFFFFFFFFFFFFFFFFFFFFFFFFFF DUP3 AND SWAP1 POP SWAP2 SWAP1 POP JUMP JUMPDEST PUSH1 0x0 DUP2 SWAP1 POP SWAP2 SWAP1 POP JUMP JUMPDEST PUSH1 0x0 JUMPDEST DUP4 DUP2 LT ISZERO PUSH3 0x9C2 JUMPI DUP1 DUP3 ADD MLOAD DUP2 DUP5 ADD MSTORE PUSH1 0x20 DUP2 ADD SWAP1 POP PUSH3 0x9A5 JUMP JUMPDEST DUP4 DUP2 GT ISZERO PUSH3 0x9D2 JUMPI PUSH1 0x0 DUP5 DUP5 ADD MSTORE JUMPDEST POP POP POP POP JUMP JUMPDEST PUSH3 0x9E3 DUP3 PUSH3 0xAF8 JUMP JUMPDEST DUP2 ADD DUP2 DUP2 LT PUSH8 0xFFFFFFFFFFFFFFFF DUP3 GT OR ISZERO PUSH3 0xA05 JUMPI PUSH3 0xA04 PUSH3 0xABA JUMP JUMPDEST JUMPDEST DUP1 PUSH1 0x40 MSTORE POP POP POP JUMP JUMPDEST PUSH1 0x0 PUSH3 0xA1B DUP3 PUSH3 0x998 JUMP JUMPDEST SWAP2 POP PUSH32 0xFFFFFFFFFFFFFFFFFFFFFFFFFFFFFFFFFFFFFFFFFFFFFFFFFFFFFFFFFFFFFFFF DUP3 EQ ISZERO PUSH3 0xA51 JUMPI PUSH3 0xA50 PUSH3 0xA5C JUMP JUMPDEST JUMPDEST PUSH1 0x1 DUP3 ADD SWAP1 POP SWAP2 SWAP1 POP JUMP JUMPDEST PUSH32 0x4E487B7100000000000000000000000000000000000000000000000000000000 PUSH1 0x0 MSTORE PUSH1 0x11 PUSH1 0x4 MSTORE PUSH1 0x24 PUSH1 0x0 REVERT JUMPDEST PUSH32 0x4E487B7100000000000000000000000000000000000000000000000000000000 PUSH1 0x0 MSTORE PUSH1 0x32 PUSH1 0x4 MSTORE PUSH1 0x24 PUSH1 0x0 REVERT JUMPDEST PUSH32 0x4E487B7100000000000000000000000000000000000000000000000000000000 PUSH1 0x0 MSTORE PUSH1 0x41 PUSH1 0x4 MSTORE PUSH1 0x24 PUSH1 0x0 REVERT JUMPDEST PUSH1 0x0 DUP1 REVERT JUMPDEST PUSH1 0x0 DUP1 REVERT JUMPDEST PUSH1 0x0 DUP1 REVERT JUMPDEST PUSH1 0x0 PUSH1 0x1F NOT PUSH1 0x1F DUP4 ADD AND SWAP1 POP SWAP2 SWAP1 POP JUMP JUMPDEST PUSH32 0x75736572206D75737420626520756E6971756500000000000000000000000000 PUSH1 0x0 DUP3 ADD MSTORE POP JUMP JUMPDEST PUSH32 0x62616C616E6365206F6620636F6E7472616374206D757374206265203E3D2074 PUSH1 0x0 DUP3 ADD MSTORE PUSH32 0x6F2074686520746F74616C2062616C616E6365206F6620757365727300000000 PUSH1 0x20 DUP3 ADD MSTORE POP JUMP JUMPDEST PUSH32 0x45787069726174696F6E206D757374206265203E206E6F770000000000000000 PUSH1 0x0 DUP3 ADD MSTORE POP JUMP JUMPDEST PUSH32 0x4368616C6C656E676520706572696F64206D757374206265203E203000000000 PUSH1 0x0 DUP3 ADD MSTORE POP JUMP JUMPDEST PUSH3 0xBDE DUP2 PUSH3 0x964 JUMP JUMPDEST DUP2 EQ PUSH3 0xBEA JUMPI PUSH1 0x0 DUP1 REVERT JUMPDEST POP JUMP JUMPDEST PUSH3 0xBF8 DUP2 PUSH3 0x998 JUMP JUMPDEST DUP2 EQ PUSH3 0xC04 JUMPI PUSH1 0x0 DUP1 REVERT JUMPDEST POP JUMP JUMPDEST PUSH2 0x2158 DUP1 PUSH3 0xC17 PUSH1 0x0 CODECOPY PUSH1 0x0 RETURN INVALID PUSH1 0x80 PUSH1 0x40 MSTORE PUSH1 0x4 CALLDATASIZE LT PUSH2 0x9C JUMPI PUSH1 0x0 CALLDATALOAD PUSH1 0xE0 SHR DUP1 PUSH4 0x8622A689 GT PUSH2 0x64 JUMPI DUP1 PUSH4 0x8622A689 EQ PUSH2 0x1AC JUMPI DUP1 PUSH4 0xA0FF4999 EQ PUSH2 0x1D7 JUMPI DUP1 PUSH4 0xAFFED0E0 EQ PUSH2 0x200 JUMPI DUP1 PUSH4 0xD0E30DB0 EQ PUSH2 0x22B JUMPI DUP1 PUSH4 0xD279AF3A EQ PUSH2 0x235 JUMPI DUP1 PUSH4 0xF3F480D9 EQ PUSH2 0x25E JUMPI PUSH2 0x9C JUMP JUMPDEST DUP1 PUSH4 0x21E66868 EQ PUSH2 0xA1 JUMPI DUP1 PUSH4 0x27E235E3 EQ PUSH2 0xDE JUMPI DUP1 PUSH4 0x365B98B2 EQ PUSH2 0x11B JUMPI DUP1 PUSH4 0x3CCFD60B EQ PUSH2 0x158 JUMPI DUP1 PUSH4 0x4209FFF1 EQ PUSH2 0x16F JUMPI JUMPDEST PUSH1 0x0 DUP1 REVERT JUMPDEST CALLVALUE DUP1 ISZERO PUSH2 0xAD JUMPI PUSH1 0x0 DUP1 REVERT JUMPDEST POP PUSH2 0xC8 PUSH1 0x4 DUP1 CALLDATASIZE SUB DUP2 ADD SWAP1 PUSH2 0xC3 SWAP2 SWAP1 PUSH2 0x1327 JUMP JUMPDEST PUSH2 0x289 JUMP JUMPDEST PUSH1 0x40 MLOAD PUSH2 0xD5 SWAP2 SWAP1 PUSH2 0x181E JUMP JUMPDEST PUSH1 0x40 MLOAD DUP1 SWAP2 SUB SWAP1 RETURN JUMPDEST CALLVALUE DUP1 ISZERO PUSH2 0xEA JUMPI PUSH1 0x0 DUP1 REVERT JUMPDEST POP PUSH2 0x105 PUSH1 0x4 DUP1 CALLDATASIZE SUB DUP2 ADD SWAP1 PUSH2 0x100 SWAP2 SWAP1 PUSH2 0x12FA JUMP JUMPDEST PUSH2 0x372 JUMP JUMPDEST PUSH1 0x40 MLOAD PUSH2 0x112 SWAP2 SWAP1 PUSH2 0x1A2E JUMP JUMPDEST PUSH1 0x40 MLOAD DUP1 SWAP2 SUB SWAP1 RETURN JUMPDEST CALLVALUE DUP1 ISZERO PUSH2 0x127 JUMPI PUSH1 0x0 DUP1 REVERT JUMPDEST POP PUSH2 0x142 PUSH1 0x4 DUP1 CALLDATASIZE SUB DUP2 ADD SWAP1 PUSH2 0x13D SWAP2 SWAP1 PUSH2 0x142D JUMP JUMPDEST PUSH2 0x38A JUMP JUMPDEST PUSH1 0x40 MLOAD PUSH2 0x14F SWAP2 SWAP1 PUSH2 0x1803 JUMP JUMPDEST PUSH1 0x40 MLOAD DUP1 SWAP2 SUB SWAP1 RETURN JUMPDEST CALLVALUE DUP1 ISZERO PUSH2 0x164 JUMPI PUSH1 0x0 DUP1 REVERT JUMPDEST POP PUSH2 0x16D PUSH2 0x3C0 JUMP JUMPDEST STOP JUMPDEST CALLVALUE DUP1 ISZERO PUSH2 0x17B JUMPI PUSH1 0x0 DUP1 REVERT JUMPDEST POP PUSH2 0x196 PUSH1 0x4 DUP1 CALLDATASIZE SUB DUP2 ADD SWAP1 PUSH2 0x191 SWAP2 SWAP1 PUSH2 0x12FA JUMP JUMPDEST PUSH2 0x618 JUMP JUMPDEST PUSH1 0x40 MLOAD PUSH2 0x1A3 SWAP2 SWAP1 PUSH2 0x181E JUMP JUMPDEST PUSH1 0x40 MLOAD DUP1 SWAP2 SUB SWAP1 RETURN JUMPDEST CALLVALUE DUP1 ISZERO PUSH2 0x1B8 JUMPI PUSH1 0x0 DUP1 REVERT JUMPDEST POP PUSH2 0x1C1 PUSH2 0x638 JUMP JUMPDEST PUSH1 0x40 MLOAD PUSH2 0x1CE SWAP2 SWAP1 PUSH2 0x1A2E JUMP JUMPDEST PUSH1 0x40 MLOAD DUP1 SWAP2 SUB SWAP1 RETURN JUMPDEST CALLVALUE DUP1 ISZERO PUSH2 0x1E3 JUMPI PUSH1 0x0 DUP1 REVERT JUMPDEST POP PUSH2 0x1FE PUSH1 0x4 DUP1 CALLDATASIZE SUB DUP2 ADD SWAP1 PUSH2 0x1F9 SWAP2 SWAP1 PUSH2 0x13BE JUMP JUMPDEST PUSH2 0x63E JUMP JUMPDEST STOP JUMPDEST CALLVALUE DUP1 ISZERO PUSH2 0x20C JUMPI PUSH1 0x0 DUP1 REVERT JUMPDEST POP PUSH2 0x215 PUSH2 0xAA5 JUMP JUMPDEST PUSH1 0x40 MLOAD PUSH2 0x222 SWAP2 SWAP1 PUSH2 0x1A2E JUMP JUMPDEST PUSH1 0x40 MLOAD DUP1 SWAP2 SUB SWAP1 RETURN JUMPDEST PUSH2 0x233 PUSH2 0xAAB JUMP JUMPDEST STOP JUMPDEST CALLVALUE DUP1 ISZERO PUSH2 0x241 JUMPI PUSH1 0x0 DUP1 REVERT JUMPDEST POP PUSH2 0x25C PUSH1 0x4 DUP1 CALLDATASIZE SUB DUP2 ADD SWAP1 PUSH2 0x257 SWAP2 SWAP1 PUSH2 0x142D JUMP JUMPDEST PUSH2 0xB94 JUMP JUMPDEST STOP JUMPDEST CALLVALUE DUP1 ISZERO PUSH2 0x26A JUMPI PUSH1 0x0 DUP1 REVERT JUMPDEST POP PUSH2 0x273 PUSH2 0xCA5 JUMP JUMPDEST PUSH1 0x40 MLOAD PUSH2 0x280 SWAP2 SWAP1 PUSH2 0x1A2E JUMP JUMPDEST PUSH1 0x40 MLOAD DUP1 SWAP2 SUB SWAP1 RETURN JUMPDEST PUSH1 0x0 DUP1 PUSH1 0x0 SWAP1 POP JUMPDEST PUSH1 0x2 DUP2 LT ISZERO PUSH2 0x363 JUMPI PUSH1 0x0 PUSH2 0x2F8 DUP9 DUP4 PUSH1 0x2 DUP2 LT PUSH2 0x2B2 JUMPI PUSH2 0x2B1 PUSH2 0x1D89 JUMP JUMPDEST JUMPDEST PUSH1 0x20 MUL ADD MLOAD PUSH2 0x2EA DUP10 DUP9 DUP9 PUSH1 0x40 MLOAD PUSH1 0x20 ADD PUSH2 0x2CF SWAP4 SWAP3 SWAP2 SWAP1 PUSH2 0x178B JUMP JUMPDEST PUSH1 0x40 MLOAD PUSH1 0x20 DUP2 DUP4 SUB SUB DUP2 MSTORE SWAP1 PUSH1 0x40 MSTORE DUP1 MLOAD SWAP1 PUSH1 0x20 ADD KECCAK256 PUSH2 0xD47 JUMP JUMPDEST PUSH2 0xD77 SWAP1 SWAP2 SWAP1 PUSH4 0xFFFFFFFF AND JUMP JUMPDEST PUSH20 0xFFFFFFFFFFFFFFFFFFFFFFFFFFFFFFFFFFFFFFFF AND DUP7 DUP4 PUSH1 0x2 DUP2 LT PUSH2 0x321 JUMPI PUSH2 0x320 PUSH2 0x1D89 JUMP JUMPDEST JUMPDEST PUSH1 0x20 MUL ADD MLOAD PUSH20 0xFFFFFFFFFFFFFFFFFFFFFFFFFFFFFFFFFFFFFFFF AND EQ SWAP1 POP DUP1 PUSH2 0x34F JUMPI PUSH1 0x0 SWAP3 POP POP POP PUSH2 0x369 JUMP JUMPDEST POP DUP1 DUP1 PUSH2 0x35B SWAP1 PUSH2 0x1CAA JUMP JUMPDEST SWAP2 POP POP PUSH2 0x291 JUMP JUMPDEST POP PUSH1 0x1 SWAP1 POP JUMPDEST SWAP6 SWAP5 POP POP POP POP POP JUMP JUMPDEST PUSH1 0x3 PUSH1 0x20 MSTORE DUP1 PUSH1 0x0 MSTORE PUSH1 0x40 PUSH1 0x0 KECCAK256 PUSH1 0x0 SWAP2 POP SWAP1 POP SLOAD DUP2 JUMP JUMPDEST PUSH1 0x0 DUP2 PUSH1 0x2 DUP2 LT PUSH2 0x39A JUMPI PUSH1 0x0 DUP1 REVERT JUMPDEST ADD PUSH1 0x0 SWAP2 POP SLOAD SWAP1 PUSH2 0x100 EXP SWAP1 DIV PUSH20 0xFFFFFFFFFFFFFFFFFFFFFFFFFFFFFFFFFFFFFFFF AND DUP2 JUMP JUMPDEST PUSH1 0x2 PUSH1 0x0 CALLER PUSH20 0xFFFFFFFFFFFFFFFFFFFFFFFFFFFFFFFFFFFFFFFF AND PUSH20 0xFFFFFFFFFFFFFFFFFFFFFFFFFFFFFFFFFFFFFFFF AND DUP2 MSTORE PUSH1 0x20 ADD SWAP1 DUP2 MSTORE PUSH1 0x20 ADD PUSH1 0x0 KECCAK256 PUSH1 0x0 SWAP1 SLOAD SWAP1 PUSH2 0x100 EXP SWAP1 DIV PUSH1 0xFF AND PUSH2 0x44C JUMPI PUSH1 0x40 MLOAD PUSH32 0x8C379A000000000000000000000000000000000000000000000000000000000 DUP2 MSTORE PUSH1 0x4 ADD PUSH2 0x443 SWAP1 PUSH2 0x198E JUMP JUMPDEST PUSH1 0x40 MLOAD DUP1 SWAP2 SUB SWAP1 REVERT JUMPDEST PUSH1 0x5 SLOAD TIMESTAMP LT ISZERO PUSH2 0x491 JUMPI PUSH1 0x40 MLOAD PUSH32 0x8C379A000000000000000000000000000000000000000000000000000000000 DUP2 MSTORE PUSH1 0x4 ADD PUSH2 0x488 SWAP1 PUSH2 0x190E JUMP JUMPDEST PUSH1 0x40 MLOAD DUP1 SWAP2 SUB SWAP1 REVERT JUMPDEST PUSH1 0x0 PUSH1 0x3 PUSH1 0x0 CALLER PUSH20 0xFFFFFFFFFFFFFFFFFFFFFFFFFFFFFFFFFFFFFFFF AND PUSH20 0xFFFFFFFFFFFFFFFFFFFFFFFFFFFFFFFFFFFFFFFF AND DUP2 MSTORE PUSH1 0x20 ADD SWAP1 DUP2 MSTORE PUSH1 0x20 ADD PUSH1 0x0 KECCAK256 SLOAD SWAP1 POP PUSH1 0x0 PUSH1 0x3 PUSH1 0x0 CALLER PUSH20 0xFFFFFFFFFFFFFFFFFFFFFFFFFFFFFFFFFFFFFFFF AND PUSH20 0xFFFFFFFFFFFFFFFFFFFFFFFFFFFFFFFFFFFFFFFF AND DUP2 MSTORE PUSH1 0x20 ADD SWAP1 DUP2 MSTORE PUSH1 0x20 ADD PUSH1 0x0 KECCAK256 DUP2 SWAP1 SSTORE POP PUSH1 0x0 CALLER PUSH20 0xFFFFFFFFFFFFFFFFFFFFFFFFFFFFFFFFFFFFFFFF AND DUP3 PUSH1 0x40 MLOAD PUSH2 0x540 SWAP1 PUSH2 0x17EE JUMP JUMPDEST PUSH1 0x0 PUSH1 0x40 MLOAD DUP1 DUP4 SUB DUP2 DUP6 DUP8 GAS CALL SWAP3 POP POP POP RETURNDATASIZE DUP1 PUSH1 0x0 DUP2 EQ PUSH2 0x57D JUMPI PUSH1 0x40 MLOAD SWAP2 POP PUSH1 0x1F NOT PUSH1 0x3F RETURNDATASIZE ADD AND DUP3 ADD PUSH1 0x40 MSTORE RETURNDATASIZE DUP3 MSTORE RETURNDATASIZE PUSH1 0x0 PUSH1 0x20 DUP5 ADD RETURNDATACOPY PUSH2 0x582 JUMP JUMPDEST PUSH1 0x60 SWAP2 POP JUMPDEST POP POP SWAP1 POP DUP1 PUSH2 0x5C6 JUMPI PUSH1 0x40 MLOAD PUSH32 0x8C379A000000000000000000000000000000000000000000000000000000000 DUP2 MSTORE PUSH1 0x4 ADD PUSH2 0x5BD SWAP1 PUSH2 0x18EE JUMP JUMPDEST PUSH1 0x40 MLOAD DUP1 SWAP2 SUB SWAP1 REVERT JUMPDEST CALLER PUSH20 0xFFFFFFFFFFFFFFFFFFFFFFFFFFFFFFFFFFFFFFFF AND PUSH32 0x884EDAD9CE6FA2440D8A54CC123490EB96D2768479D49FF9C7366125A9424364 DUP4 PUSH1 0x40 MLOAD PUSH2 0x60C SWAP2 SWAP1 PUSH2 0x1A2E JUMP JUMPDEST PUSH1 0x40 MLOAD DUP1 SWAP2 SUB SWAP1 LOG2 POP POP JUMP JUMPDEST PUSH1 0x2 PUSH1 0x20 MSTORE DUP1 PUSH1 0x0 MSTORE PUSH1 0x40 PUSH1 0x0 KECCAK256 PUSH1 0x0 SWAP2 POP SLOAD SWAP1 PUSH2 0x100 EXP SWAP1 DIV PUSH1 0xFF AND DUP2 JUMP JUMPDEST PUSH1 0x5 SLOAD DUP2 JUMP JUMPDEST PUSH1 0x2 PUSH1 0x0 CALLER PUSH20 0xFFFFFFFFFFFFFFFFFFFFFFFFFFFFFFFFFFFFFFFF AND PUSH20 0xFFFFFFFFFFFFFFFFFFFFFFFFFFFFFFFFFFFFFFFF AND DUP2 MSTORE PUSH1 0x20 ADD SWAP1 DUP2 MSTORE PUSH1 0x20 ADD PUSH1 0x0 KECCAK256 PUSH1 0x0 SWAP1 SLOAD SWAP1 PUSH2 0x100 EXP SWAP1 DIV PUSH1 0xFF AND PUSH2 0x6CA JUMPI PUSH1 0x40 MLOAD PUSH32 0x8C379A000000000000000000000000000000000000000000000000000000000 DUP2 MSTORE PUSH1 0x4 ADD PUSH2 0x6C1 SWAP1 PUSH2 0x198E JUMP JUMPDEST PUSH1 0x40 MLOAD DUP1 SWAP2 SUB SWAP1 REVERT JUMPDEST DUP1 DUP4 DUP4 PUSH2 0x6D5 PUSH2 0x106A JUMP JUMPDEST PUSH1 0x0 JUMPDEST PUSH1 0x2 DUP2 LT ISZERO PUSH2 0x774 JUMPI PUSH1 0x0 DUP2 PUSH1 0x2 DUP2 LT PUSH2 0x6F5 JUMPI PUSH2 0x6F4 PUSH2 0x1D89 JUMP JUMPDEST JUMPDEST ADD PUSH1 0x0 SWAP1 SLOAD SWAP1 PUSH2 0x100 EXP SWAP1 DIV PUSH20 0xFFFFFFFFFFFFFFFFFFFFFFFFFFFFFFFFFFFFFFFF AND DUP3 DUP3 PUSH1 0x2 DUP2 LT PUSH2 0x72A JUMPI PUSH2 0x729 PUSH2 0x1D89 JUMP JUMPDEST JUMPDEST PUSH1 0x20 MUL ADD SWAP1 PUSH20 0xFFFFFFFFFFFFFFFFFFFFFFFFFFFFFFFFFFFFFFFF AND SWAP1 DUP2 PUSH20 0xFFFFFFFFFFFFFFFFFFFFFFFFFFFFFFFFFFFFFFFF AND DUP2 MSTORE POP POP DUP1 DUP1 PUSH2 0x76C SWAP1 PUSH2 0x1CAA JUMP JUMPDEST SWAP2 POP POP PUSH2 0x6D8 JUMP JUMPDEST POP PUSH2 0x782 DUP5 ADDRESS DUP4 DUP7 DUP7 PUSH2 0x289 JUMP JUMPDEST PUSH2 0x7C1 JUMPI PUSH1 0x40 MLOAD PUSH32 0x8C379A000000000000000000000000000000000000000000000000000000000 DUP2 MSTORE PUSH1 0x4 ADD PUSH2 0x7B8 SWAP1 PUSH2 0x192E JUMP JUMPDEST PUSH1 0x40 MLOAD DUP1 SWAP2 SUB SWAP1 REVERT JUMPDEST DUP7 PUSH2 0x801 PUSH1 0x40 MLOAD DUP1 PUSH1 0x40 ADD PUSH1 0x40 MSTORE DUP1 PUSH1 0x11 DUP2 MSTORE PUSH1 0x20 ADD PUSH32 0x616464726573732062616C616E63653A20000000000000000000000000000000 DUP2 MSTORE POP SELFBALANCE PUSH2 0xCAB JUMP JUMPDEST PUSH2 0x87B PUSH1 0x40 MLOAD DUP1 PUSH1 0x40 ADD PUSH1 0x40 MSTORE DUP1 PUSH1 0xA DUP2 MSTORE PUSH1 0x20 ADD PUSH32 0x62616C616E6365733A2000000000000000000000000000000000000000000000 DUP2 MSTORE POP DUP3 PUSH1 0x1 PUSH1 0x2 DUP2 LT PUSH2 0x84E JUMPI PUSH2 0x84D PUSH2 0x1D89 JUMP JUMPDEST JUMPDEST PUSH1 0x20 MUL ADD MLOAD DUP4 PUSH1 0x0 PUSH1 0x2 DUP2 LT PUSH2 0x867 JUMPI PUSH2 0x866 PUSH2 0x1D89 JUMP JUMPDEST JUMPDEST PUSH1 0x20 MUL ADD MLOAD PUSH2 0x876 SWAP2 SWAP1 PUSH2 0x1B70 JUMP JUMPDEST PUSH2 0xCAB JUMP JUMPDEST DUP1 PUSH1 0x1 PUSH1 0x2 DUP2 LT PUSH2 0x88F JUMPI PUSH2 0x88E PUSH2 0x1D89 JUMP JUMPDEST JUMPDEST PUSH1 0x20 MUL ADD MLOAD DUP2 PUSH1 0x0 PUSH1 0x2 DUP2 LT PUSH2 0x8A8 JUMPI PUSH2 0x8A7 PUSH2 0x1D89 JUMP JUMPDEST JUMPDEST PUSH1 0x20 MUL ADD MLOAD PUSH2 0x8B7 SWAP2 SWAP1 PUSH2 0x1B70 JUMP JUMPDEST SELFBALANCE LT ISZERO PUSH2 0x8F9 JUMPI PUSH1 0x40 MLOAD PUSH32 0x8C379A000000000000000000000000000000000000000000000000000000000 DUP2 MSTORE PUSH1 0x4 ADD PUSH2 0x8F0 SWAP1 PUSH2 0x19AE JUMP JUMPDEST PUSH1 0x40 MLOAD DUP1 SWAP2 SUB SWAP1 REVERT JUMPDEST PUSH1 0x5 SLOAD TIMESTAMP LT PUSH2 0x93D JUMPI PUSH1 0x40 MLOAD PUSH32 0x8C379A000000000000000000000000000000000000000000000000000000000 DUP2 MSTORE PUSH1 0x4 ADD PUSH2 0x934 SWAP1 PUSH2 0x19EE JUMP JUMPDEST PUSH1 0x40 MLOAD DUP1 SWAP2 SUB SWAP1 REVERT JUMPDEST PUSH1 0x6 SLOAD DUP8 GT PUSH2 0x981 JUMPI PUSH1 0x40 MLOAD PUSH32 0x8C379A000000000000000000000000000000000000000000000000000000000 DUP2 MSTORE PUSH1 0x4 ADD PUSH2 0x978 SWAP1 PUSH2 0x196E JUMP JUMPDEST PUSH1 0x40 MLOAD DUP1 SWAP2 SUB SWAP1 REVERT JUMPDEST PUSH1 0x0 JUMPDEST PUSH1 0x2 DUP2 LT ISZERO PUSH2 0xA2F JUMPI DUP9 DUP2 PUSH1 0x2 DUP2 LT PUSH2 0x9A0 JUMPI PUSH2 0x99F PUSH2 0x1D89 JUMP JUMPDEST JUMPDEST PUSH1 0x20 MUL ADD MLOAD PUSH1 0x3 PUSH1 0x0 DUP1 DUP5 PUSH1 0x2 DUP2 LT PUSH2 0x9BC JUMPI PUSH2 0x9BB PUSH2 0x1D89 JUMP JUMPDEST JUMPDEST ADD PUSH1 0x0 SWAP1 SLOAD SWAP1 PUSH2 0x100 EXP SWAP1 DIV PUSH20 0xFFFFFFFFFFFFFFFFFFFFFFFFFFFFFFFFFFFFFFFF AND PUSH20 0xFFFFFFFFFFFFFFFFFFFFFFFFFFFFFFFFFFFFFFFF AND PUSH20 0xFFFFFFFFFFFFFFFFFFFFFFFFFFFFFFFFFFFFFFFF AND DUP2 MSTORE PUSH1 0x20 ADD SWAP1 DUP2 MSTORE PUSH1 0x20 ADD PUSH1 0x0 KECCAK256 DUP2 SWAP1 SSTORE POP DUP1 DUP1 PUSH2 0xA27 SWAP1 PUSH2 0x1CAA JUMP JUMPDEST SWAP2 POP POP PUSH2 0x984 JUMP JUMPDEST POP DUP7 PUSH1 0x6 DUP2 SWAP1 SSTORE POP PUSH1 0x4 SLOAD TIMESTAMP PUSH2 0xA45 SWAP2 SWAP1 PUSH2 0x1B70 JUMP JUMPDEST PUSH1 0x5 DUP2 SWAP1 SSTORE POP CALLER PUSH20 0xFFFFFFFFFFFFFFFFFFFFFFFFFFFFFFFFFFFFFFFF AND PUSH32 0x5050C6E2A6FC173775CE4852F893C9E5AAEFF00101F3AEF75E0EC263CF083CA9 PUSH1 0x6 SLOAD PUSH1 0x40 MLOAD PUSH2 0xA93 SWAP2 SWAP1 PUSH2 0x1A2E JUMP JUMPDEST PUSH1 0x40 MLOAD DUP1 SWAP2 SUB SWAP1 LOG2 POP POP POP POP POP POP POP POP JUMP JUMPDEST PUSH1 0x6 SLOAD DUP2 JUMP JUMPDEST PUSH1 0x0 CALLVALUE GT PUSH2 0xAEE JUMPI PUSH1 0x40 MLOAD PUSH32 0x8C379A000000000000000000000000000000000000000000000000000000000 DUP2 MSTORE PUSH1 0x4 ADD PUSH2 0xAE5 SWAP1 PUSH2 0x1A0E JUMP JUMPDEST PUSH1 0x40 MLOAD DUP1 SWAP2 SUB SWAP1 REVERT JUMPDEST CALLVALUE PUSH1 0x3 PUSH1 0x0 CALLER PUSH20 0xFFFFFFFFFFFFFFFFFFFFFFFFFFFFFFFFFFFFFFFF AND PUSH20 0xFFFFFFFFFFFFFFFFFFFFFFFFFFFFFFFFFFFFFFFF AND DUP2 MSTORE PUSH1 0x20 ADD SWAP1 DUP2 MSTORE PUSH1 0x20 ADD PUSH1 0x0 KECCAK256 PUSH1 0x0 DUP3 DUP3 SLOAD PUSH2 0xB3D SWAP2 SWAP1 PUSH2 0x1B70 JUMP JUMPDEST SWAP3 POP POP DUP2 SWAP1 SSTORE POP CALLER PUSH20 0xFFFFFFFFFFFFFFFFFFFFFFFFFFFFFFFFFFFFFFFF AND PUSH32 0xE1FFFCC4923D04B559F4D29A8BFC6CDA04EB5B0D3C460751C2402C5C5CC9109C CALLVALUE PUSH1 0x40 MLOAD PUSH2 0xB8A SWAP2 SWAP1 PUSH2 0x1A2E JUMP JUMPDEST PUSH1 0x40 MLOAD DUP1 SWAP2 SUB SWAP1 LOG2 JUMP JUMPDEST PUSH1 0x2 PUSH1 0x0 CALLER PUSH20 0xFFFFFFFFFFFFFFFFFFFFFFFFFFFFFFFFFFFFFFFF AND PUSH20 0xFFFFFFFFFFFFFFFFFFFFFFFFFFFFFFFFFFFFFFFF AND DUP2 MSTORE PUSH1 0x20 ADD SWAP1 DUP2 MSTORE PUSH1 0x20 ADD PUSH1 0x0 KECCAK256 PUSH1 0x0 SWAP1 SLOAD SWAP1 PUSH2 0x100 EXP SWAP1 DIV PUSH1 0xFF AND PUSH2 0xC20 JUMPI PUSH1 0x40 MLOAD PUSH32 0x8C379A000000000000000000000000000000000000000000000000000000000 DUP2 MSTORE PUSH1 0x4 ADD PUSH2 0xC17 SWAP1 PUSH2 0x198E JUMP JUMPDEST PUSH1 0x40 MLOAD DUP1 SWAP2 SUB SWAP1 REVERT JUMPDEST TIMESTAMP DUP2 GT PUSH2 0xC62 JUMPI PUSH1 0x40 MLOAD PUSH32 0x8C379A000000000000000000000000000000000000000000000000000000000 DUP2 MSTORE PUSH1 0x4 ADD PUSH2 0xC59 SWAP1 PUSH2 0x19CE JUMP JUMPDEST PUSH1 0x40 MLOAD DUP1 SWAP2 SUB SWAP1 REVERT JUMPDEST DUP1 PUSH1 0x5 DUP2 SWAP1 SSTORE POP PUSH32 0x51F0A74BB67D71DE6DFE418DDDFE83883D35CE9341033FABC58A893C21E713E2 PUSH1 0x5 SLOAD PUSH1 0x40 MLOAD PUSH2 0xC9A SWAP2 SWAP1 PUSH2 0x1A2E JUMP JUMPDEST PUSH1 0x40 MLOAD DUP1 SWAP2 SUB SWAP1 LOG1 POP JUMP JUMPDEST PUSH1 0x4 SLOAD DUP2 JUMP JUMPDEST PUSH2 0xD43 DUP3 DUP3 PUSH1 0x40 MLOAD PUSH1 0x24 ADD PUSH2 0xCC1 SWAP3 SWAP2 SWAP1 PUSH2 0x187E JUMP JUMPDEST PUSH1 0x40 MLOAD PUSH1 0x20 DUP2 DUP4 SUB SUB DUP2 MSTORE SWAP1 PUSH1 0x40 MSTORE PUSH32 0xB60E72CC00000000000000000000000000000000000000000000000000000000 PUSH28 0xFFFFFFFFFFFFFFFFFFFFFFFFFFFFFFFFFFFFFFFFFFFFFFFFFFFFFFFF NOT AND PUSH1 0x20 DUP3 ADD DUP1 MLOAD PUSH28 0xFFFFFFFFFFFFFFFFFFFFFFFFFFFFFFFFFFFFFFFFFFFFFFFFFFFFFFFF DUP4 DUP2 DUP4 AND OR DUP4 MSTORE POP POP POP POP PUSH2 0xD9E JUMP JUMPDEST POP POP JUMP JUMPDEST PUSH1 0x0 DUP2 PUSH1 0x40 MLOAD PUSH1 0x20 ADD PUSH2 0xD5A SWAP2 SWAP1 PUSH2 0x17C8 JUMP JUMPDEST PUSH1 0x40 MLOAD PUSH1 0x20 DUP2 DUP4 SUB SUB DUP2 MSTORE SWAP1 PUSH1 0x40 MSTORE DUP1 MLOAD SWAP1 PUSH1 0x20 ADD KECCAK256 SWAP1 POP SWAP2 SWAP1 POP JUMP JUMPDEST PUSH1 0x0 DUP1 PUSH1 0x0 PUSH2 0xD86 DUP6 DUP6 PUSH2 0xDC7 JUMP JUMPDEST SWAP2 POP SWAP2 POP PUSH2 0xD93 DUP2 PUSH2 0xE19 JUMP JUMPDEST DUP2 SWAP3 POP POP POP SWAP3 SWAP2 POP POP JUMP JUMPDEST PUSH1 0x0 DUP2 MLOAD SWAP1 POP PUSH1 0x0 PUSH11 0x636F6E736F6C652E6C6F67 SWAP1 POP PUSH1 0x20 DUP4 ADD PUSH1 0x0 DUP1 DUP5 DUP4 DUP6 GAS STATICCALL POP POP POP POP POP JUMP JUMPDEST PUSH1 0x0 DUP1 PUSH1 0x41 DUP4 MLOAD EQ ISZERO PUSH2 0xE09 JUMPI PUSH1 0x0 DUP1 PUSH1 0x0 PUSH1 0x20 DUP7 ADD MLOAD SWAP3 POP PUSH1 0x40 DUP7 ADD MLOAD SWAP2 POP PUSH1 0x60 DUP7 ADD MLOAD PUSH1 0x0 BYTE SWAP1 POP PUSH2 0xDFD DUP8 DUP3 DUP6 DUP6 PUSH2 0xF87 JUMP JUMPDEST SWAP5 POP SWAP5 POP POP POP POP PUSH2 0xE12 JUMP JUMPDEST PUSH1 0x0 PUSH1 0x2 SWAP2 POP SWAP2 POP JUMPDEST SWAP3 POP SWAP3 SWAP1 POP JUMP JUMPDEST PUSH1 0x0 PUSH1 0x4 DUP2 GT ISZERO PUSH2 0xE2D JUMPI PUSH2 0xE2C PUSH2 0x1D5A JUMP JUMPDEST JUMPDEST DUP2 PUSH1 0x4 DUP2 GT ISZERO PUSH2 0xE40 JUMPI PUSH2 0xE3F PUSH2 0x1D5A JUMP JUMPDEST JUMPDEST EQ ISZERO PUSH2 0xE4B JUMPI PUSH2 0xF84 JUMP JUMPDEST PUSH1 0x1 PUSH1 0x4 DUP2 GT ISZERO PUSH2 0xE5F JUMPI PUSH2 0xE5E PUSH2 0x1D5A JUMP JUMPDEST JUMPDEST DUP2 PUSH1 0x4 DUP2 GT ISZERO PUSH2 0xE72 JUMPI PUSH2 0xE71 PUSH2 0x1D5A JUMP JUMPDEST JUMPDEST EQ ISZERO PUSH2 0xEB3 JUMPI PUSH1 0x40 MLOAD PUSH32 0x8C379A000000000000000000000000000000000000000000000000000000000 DUP2 MSTORE PUSH1 0x4 ADD PUSH2 0xEAA SWAP1 PUSH2 0x18AE JUMP JUMPDEST PUSH1 0x40 MLOAD DUP1 SWAP2 SUB SWAP1 REVERT JUMPDEST PUSH1 0x2 PUSH1 0x4 DUP2 GT ISZERO PUSH2 0xEC7 JUMPI PUSH2 0xEC6 PUSH2 0x1D5A JUMP JUMPDEST JUMPDEST DUP2 PUSH1 0x4 DUP2 GT ISZERO PUSH2 0xEDA JUMPI PUSH2 0xED9 PUSH2 0x1D5A JUMP JUMPDEST JUMPDEST EQ ISZERO PUSH2 0xF1B JUMPI PUSH1 0x40 MLOAD PUSH32 0x8C379A000000000000000000000000000000000000000000000000000000000 DUP2 MSTORE PUSH1 0x4 ADD PUSH2 0xF12 SWAP1 PUSH2 0x18CE JUMP JUMPDEST PUSH1 0x40 MLOAD DUP1 SWAP2 SUB SWAP1 REVERT JUMPDEST PUSH1 0x3 PUSH1 0x4 DUP2 GT ISZERO PUSH2 0xF2F JUMPI PUSH2 0xF2E PUSH2 0x1D5A JUMP JUMPDEST JUMPDEST DUP2 PUSH1 0x4 DUP2 GT ISZERO PUSH2 0xF42 JUMPI PUSH2 0xF41 PUSH2 0x1D5A JUMP JUMPDEST JUMPDEST EQ ISZERO PUSH2 0xF83 JUMPI PUSH1 0x40 MLOAD PUSH32 0x8C379A000000000000000000000000000000000000000000000000000000000 DUP2 MSTORE PUSH1 0x4 ADD PUSH2 0xF7A SWAP1 PUSH2 0x194E JUMP JUMPDEST PUSH1 0x40 MLOAD DUP1 SWAP2 SUB SWAP1 REVERT JUMPDEST JUMPDEST POP JUMP JUMPDEST PUSH1 0x0 DUP1 PUSH32 0x7FFFFFFFFFFFFFFFFFFFFFFFFFFFFFFF5D576E7357A4501DDFE92F46681B20A0 DUP4 PUSH1 0x0 SHR GT ISZERO PUSH2 0xFC2 JUMPI PUSH1 0x0 PUSH1 0x3 SWAP2 POP SWAP2 POP PUSH2 0x1061 JUMP JUMPDEST PUSH1 0x0 PUSH1 0x1 DUP8 DUP8 DUP8 DUP8 PUSH1 0x40 MLOAD PUSH1 0x0 DUP2 MSTORE PUSH1 0x20 ADD PUSH1 0x40 MSTORE PUSH1 0x40 MLOAD PUSH2 0xFE7 SWAP5 SWAP4 SWAP3 SWAP2 SWAP1 PUSH2 0x1839 JUMP JUMPDEST PUSH1 0x20 PUSH1 0x40 MLOAD PUSH1 0x20 DUP2 SUB SWAP1 DUP1 DUP5 SUB SWAP1 DUP6 GAS STATICCALL ISZERO DUP1 ISZERO PUSH2 0x1009 JUMPI RETURNDATASIZE PUSH1 0x0 DUP1 RETURNDATACOPY RETURNDATASIZE PUSH1 0x0 REVERT JUMPDEST POP POP POP PUSH1 0x20 PUSH1 0x40 MLOAD SUB MLOAD SWAP1 POP PUSH1 0x0 PUSH20 0xFFFFFFFFFFFFFFFFFFFFFFFFFFFFFFFFFFFFFFFF AND DUP2 PUSH20 0xFFFFFFFFFFFFFFFFFFFFFFFFFFFFFFFFFFFFFFFF AND EQ ISZERO PUSH2 0x1058 JUMPI PUSH1 0x0 PUSH1 0x1 SWAP3 POP SWAP3 POP POP PUSH2 0x1061 JUMP JUMPDEST DUP1 PUSH1 0x0 SWAP3 POP SWAP3 POP POP JUMPDEST SWAP5 POP SWAP5 SWAP3 POP POP POP JUMP JUMPDEST PUSH1 0x40 MLOAD DUP1 PUSH1 0x40 ADD PUSH1 0x40 MSTORE DUP1 PUSH1 0x2 SWAP1 PUSH1 0x20 DUP3 MUL DUP1 CALLDATASIZE DUP4 CALLDATACOPY DUP1 DUP3 ADD SWAP2 POP POP SWAP1 POP POP SWAP1 JUMP JUMPDEST PUSH1 0x0 PUSH2 0x109F PUSH2 0x109A DUP5 PUSH2 0x1A6E JUMP JUMPDEST PUSH2 0x1A49 JUMP JUMPDEST SWAP1 POP DUP1 DUP3 DUP6 PUSH1 0x20 DUP7 MUL DUP3 ADD GT ISZERO PUSH2 0x10B9 JUMPI PUSH2 0x10B8 PUSH2 0x1DEC JUMP JUMPDEST JUMPDEST PUSH1 0x0 JUMPDEST DUP6 DUP2 LT ISZERO PUSH2 0x10E9 JUMPI DUP2 PUSH2 0x10CF DUP9 DUP3 PUSH2 0x1221 JUMP JUMPDEST DUP5 MSTORE PUSH1 0x20 DUP5 ADD SWAP4 POP PUSH1 0x20 DUP4 ADD SWAP3 POP POP PUSH1 0x1 DUP2 ADD SWAP1 POP PUSH2 0x10BC JUMP JUMPDEST POP POP POP SWAP4 SWAP3 POP POP POP JUMP JUMPDEST PUSH1 0x0 PUSH2 0x1106 PUSH2 0x1101 DUP5 PUSH2 0x1A94 JUMP JUMPDEST PUSH2 0x1A49 JUMP JUMPDEST SWAP1 POP DUP1 DUP3 DUP6 PUSH1 0x20 DUP7 MUL DUP3 ADD GT ISZERO PUSH2 0x1120 JUMPI PUSH2 0x111F PUSH2 0x1DEC JUMP JUMPDEST JUMPDEST PUSH1 0x0 JUMPDEST DUP6 DUP2 LT ISZERO PUSH2 0x116E JUMPI DUP2 CALLDATALOAD PUSH8 0xFFFFFFFFFFFFFFFF DUP2 GT ISZERO PUSH2 0x1146 JUMPI PUSH2 0x1145 PUSH2 0x1DE7 JUMP JUMPDEST JUMPDEST DUP1 DUP7 ADD PUSH2 0x1153 DUP10 DUP3 PUSH2 0x12B7 JUMP JUMPDEST DUP6 MSTORE PUSH1 0x20 DUP6 ADD SWAP5 POP PUSH1 0x20 DUP5 ADD SWAP4 POP POP POP PUSH1 0x1 DUP2 ADD SWAP1 POP PUSH2 0x1123 JUMP JUMPDEST POP POP POP SWAP4 SWAP3 POP POP POP JUMP JUMPDEST PUSH1 0x0 PUSH2 0x118B PUSH2 0x1186 DUP5 PUSH2 0x1ABA JUMP JUMPDEST PUSH2 0x1A49 JUMP JUMPDEST SWAP1 POP DUP1 DUP3 DUP6 PUSH1 0x20 DUP7 MUL DUP3 ADD GT ISZERO PUSH2 0x11A5 JUMPI PUSH2 0x11A4 PUSH2 0x1DEC JUMP JUMPDEST JUMPDEST PUSH1 0x0 JUMPDEST DUP6 DUP2 LT ISZERO PUSH2 0x11D5 JUMPI DUP2 PUSH2 0x11BB DUP9 DUP3 PUSH2 0x12E5 JUMP JUMPDEST DUP5 MSTORE PUSH1 0x20 DUP5 ADD SWAP4 POP PUSH1 0x20 DUP4 ADD SWAP3 POP POP PUSH1 0x1 DUP2 ADD SWAP1 POP PUSH2 0x11A8 JUMP JUMPDEST POP POP POP SWAP4 SWAP3 POP POP POP JUMP JUMPDEST PUSH1 0x0 PUSH2 0x11F2 PUSH2 0x11ED DUP5 PUSH2 0x1AE0 JUMP JUMPDEST PUSH2 0x1A49 JUMP JUMPDEST SWAP1 POP DUP3 DUP2 MSTORE PUSH1 0x20 DUP2 ADD DUP5 DUP5 DUP5 ADD GT ISZERO PUSH2 0x120E JUMPI PUSH2 0x120D PUSH2 0x1DF1 JUMP JUMPDEST JUMPDEST PUSH2 0x1219 DUP5 DUP3 DUP6 PUSH2 0x1C37 JUMP JUMPDEST POP SWAP4 SWAP3 POP POP POP JUMP JUMPDEST PUSH1 0x0 DUP2 CALLDATALOAD SWAP1 POP PUSH2 0x1230 DUP2 PUSH2 0x20F4 JUMP JUMPDEST SWAP3 SWAP2 POP POP JUMP JUMPDEST PUSH1 0x0 DUP3 PUSH1 0x1F DUP4 ADD SLT PUSH2 0x124B JUMPI PUSH2 0x124A PUSH2 0x1DE7 JUMP JUMPDEST JUMPDEST PUSH1 0x2 PUSH2 0x1258 DUP5 DUP3 DUP6 PUSH2 0x108C JUMP JUMPDEST SWAP2 POP POP SWAP3 SWAP2 POP POP JUMP JUMPDEST PUSH1 0x0 DUP3 PUSH1 0x1F DUP4 ADD SLT PUSH2 0x1276 JUMPI PUSH2 0x1275 PUSH2 0x1DE7 JUMP JUMPDEST JUMPDEST PUSH1 0x2 PUSH2 0x1283 DUP5 DUP3 DUP6 PUSH2 0x10F3 JUMP JUMPDEST SWAP2 POP POP SWAP3 SWAP2 POP POP JUMP JUMPDEST PUSH1 0x0 DUP3 PUSH1 0x1F DUP4 ADD SLT PUSH2 0x12A1 JUMPI PUSH2 0x12A0 PUSH2 0x1DE7 JUMP JUMPDEST JUMPDEST PUSH1 0x2 PUSH2 0x12AE DUP5 DUP3 DUP6 PUSH2 0x1178 JUMP JUMPDEST SWAP2 POP POP SWAP3 SWAP2 POP POP JUMP JUMPDEST PUSH1 0x0 DUP3 PUSH1 0x1F DUP4 ADD SLT PUSH2 0x12CC JUMPI PUSH2 0x12CB PUSH2 0x1DE7 JUMP JUMPDEST JUMPDEST DUP2 CALLDATALOAD PUSH2 0x12DC DUP5 DUP3 PUSH1 0x20 DUP7 ADD PUSH2 0x11DF JUMP JUMPDEST SWAP2 POP POP SWAP3 SWAP2 POP POP JUMP JUMPDEST PUSH1 0x0 DUP2 CALLDATALOAD SWAP1 POP PUSH2 0x12F4 DUP2 PUSH2 0x210B JUMP JUMPDEST SWAP3 SWAP2 POP POP JUMP JUMPDEST PUSH1 0x0 PUSH1 0x20 DUP3 DUP5 SUB SLT ISZERO PUSH2 0x1310 JUMPI PUSH2 0x130F PUSH2 0x1DFB JUMP JUMPDEST JUMPDEST PUSH1 0x0 PUSH2 0x131E DUP5 DUP3 DUP6 ADD PUSH2 0x1221 JUMP JUMPDEST SWAP2 POP POP SWAP3 SWAP2 POP POP JUMP JUMPDEST PUSH1 0x0 DUP1 PUSH1 0x0 DUP1 PUSH1 0x0 PUSH1 0xE0 DUP7 DUP9 SUB SLT ISZERO PUSH2 0x1343 JUMPI PUSH2 0x1342 PUSH2 0x1DFB JUMP JUMPDEST JUMPDEST PUSH1 0x0 DUP7 ADD CALLDATALOAD PUSH8 0xFFFFFFFFFFFFFFFF DUP2 GT ISZERO PUSH2 0x1361 JUMPI PUSH2 0x1360 PUSH2 0x1DF6 JUMP JUMPDEST JUMPDEST PUSH2 0x136D DUP9 DUP3 DUP10 ADD PUSH2 0x1261 JUMP JUMPDEST SWAP6 POP POP PUSH1 0x20 PUSH2 0x137E DUP9 DUP3 DUP10 ADD PUSH2 0x1221 JUMP JUMPDEST SWAP5 POP POP PUSH1 0x40 PUSH2 0x138F DUP9 DUP3 DUP10 ADD PUSH2 0x1236 JUMP JUMPDEST SWAP4 POP POP PUSH1 0x80 PUSH2 0x13A0 DUP9 DUP3 DUP10 ADD PUSH2 0x128C JUMP JUMPDEST SWAP3 POP POP PUSH1 0xC0 PUSH2 0x13B1 DUP9 DUP3 DUP10 ADD PUSH2 0x12E5 JUMP JUMPDEST SWAP2 POP POP SWAP3 SWAP6 POP SWAP3 SWAP6 SWAP1 SWAP4 POP JUMP JUMPDEST PUSH1 0x0 DUP1 PUSH1 0x0 PUSH1 0x80 DUP5 DUP7 SUB SLT ISZERO PUSH2 0x13D7 JUMPI PUSH2 0x13D6 PUSH2 0x1DFB JUMP JUMPDEST JUMPDEST PUSH1 0x0 PUSH2 0x13E5 DUP7 DUP3 DUP8 ADD PUSH2 0x128C JUMP JUMPDEST SWAP4 POP POP PUSH1 0x40 PUSH2 0x13F6 DUP7 DUP3 DUP8 ADD PUSH2 0x12E5 JUMP JUMPDEST SWAP3 POP POP PUSH1 0x60 DUP5 ADD CALLDATALOAD PUSH8 0xFFFFFFFFFFFFFFFF DUP2 GT ISZERO PUSH2 0x1417 JUMPI PUSH2 0x1416 PUSH2 0x1DF6 JUMP JUMPDEST JUMPDEST PUSH2 0x1423 DUP7 DUP3 DUP8 ADD PUSH2 0x1261 JUMP JUMPDEST SWAP2 POP POP SWAP3 POP SWAP3 POP SWAP3 JUMP JUMPDEST PUSH1 0x0 PUSH1 0x20 DUP3 DUP5 SUB SLT ISZERO PUSH2 0x1443 JUMPI PUSH2 0x1442 PUSH2 0x1DFB JUMP JUMPDEST JUMPDEST PUSH1 0x0 PUSH2 0x1451 DUP5 DUP3 DUP6 ADD PUSH2 0x12E5 JUMP JUMPDEST SWAP2 POP POP SWAP3 SWAP2 POP POP JUMP JUMPDEST PUSH1 0x0 PUSH2 0x1466 DUP4 DUP4 PUSH2 0x1756 JUMP JUMPDEST PUSH1 0x20 DUP4 ADD SWAP1 POP SWAP3 SWAP2 POP POP JUMP JUMPDEST PUSH2 0x147B DUP2 PUSH2 0x1BD8 JUMP JUMPDEST DUP3 MSTORE POP POP JUMP JUMPDEST PUSH2 0x1492 PUSH2 0x148D DUP3 PUSH2 0x1BC6 JUMP JUMPDEST PUSH2 0x1CF3 JUMP JUMPDEST DUP3 MSTORE POP POP JUMP JUMPDEST PUSH2 0x14A1 DUP2 PUSH2 0x1B1B JUMP JUMPDEST PUSH2 0x14AB DUP2 DUP5 PUSH2 0x1B3E JUMP JUMPDEST SWAP3 POP PUSH2 0x14B6 DUP3 PUSH2 0x1B11 JUMP JUMPDEST DUP1 PUSH1 0x0 JUMPDEST DUP4 DUP2 LT ISZERO PUSH2 0x14E7 JUMPI DUP2 MLOAD PUSH2 0x14CE DUP8 DUP3 PUSH2 0x145A JUMP JUMPDEST SWAP7 POP PUSH2 0x14D9 DUP4 PUSH2 0x1B31 JUMP JUMPDEST SWAP3 POP POP PUSH1 0x1 DUP2 ADD SWAP1 POP PUSH2 0x14BA JUMP JUMPDEST POP POP POP POP POP POP JUMP JUMPDEST PUSH2 0x14F8 DUP2 PUSH2 0x1BEA JUMP JUMPDEST DUP3 MSTORE POP POP JUMP JUMPDEST PUSH2 0x1507 DUP2 PUSH2 0x1BF6 JUMP JUMPDEST DUP3 MSTORE POP POP JUMP JUMPDEST PUSH2 0x151E PUSH2 0x1519 DUP3 PUSH2 0x1BF6 JUMP JUMPDEST PUSH2 0x1D05 JUMP JUMPDEST DUP3 MSTORE POP POP JUMP JUMPDEST PUSH1 0x0 PUSH2 0x152F DUP3 PUSH2 0x1B26 JUMP JUMPDEST PUSH2 0x1539 DUP2 DUP6 PUSH2 0x1B54 JUMP JUMPDEST SWAP4 POP PUSH2 0x1549 DUP2 DUP6 PUSH1 0x20 DUP7 ADD PUSH2 0x1C46 JUMP JUMPDEST PUSH2 0x1552 DUP2 PUSH2 0x1E00 JUMP JUMPDEST DUP5 ADD SWAP2 POP POP SWAP3 SWAP2 POP POP JUMP JUMPDEST PUSH1 0x0 PUSH2 0x156A PUSH1 0x18 DUP4 PUSH2 0x1B54 JUMP JUMPDEST SWAP2 POP PUSH2 0x1575 DUP3 PUSH2 0x1E1E JUMP JUMPDEST PUSH1 0x20 DUP3 ADD SWAP1 POP SWAP2 SWAP1 POP JUMP JUMPDEST PUSH1 0x0 PUSH2 0x158D PUSH1 0x1F DUP4 PUSH2 0x1B54 JUMP JUMPDEST SWAP2 POP PUSH2 0x1598 DUP3 PUSH2 0x1E47 JUMP JUMPDEST PUSH1 0x20 DUP3 ADD SWAP1 POP SWAP2 SWAP1 POP JUMP JUMPDEST PUSH1 0x0 PUSH2 0x15B0 PUSH1 0x1C DUP4 PUSH2 0x1B65 JUMP JUMPDEST SWAP2 POP PUSH2 0x15BB DUP3 PUSH2 0x1E70 JUMP JUMPDEST PUSH1 0x1C DUP3 ADD SWAP1 POP SWAP2 SWAP1 POP JUMP JUMPDEST PUSH1 0x0 PUSH2 0x15D3 PUSH1 0x14 DUP4 PUSH2 0x1B54 JUMP JUMPDEST SWAP2 POP PUSH2 0x15DE DUP3 PUSH2 0x1E99 JUMP JUMPDEST PUSH1 0x20 DUP3 ADD SWAP1 POP SWAP2 SWAP1 POP JUMP JUMPDEST PUSH1 0x0 PUSH2 0x15F6 PUSH1 0x24 DUP4 PUSH2 0x1B54 JUMP JUMPDEST SWAP2 POP PUSH2 0x1601 DUP3 PUSH2 0x1EC2 JUMP JUMPDEST PUSH1 0x40 DUP3 ADD SWAP1 POP SWAP2 SWAP1 POP JUMP JUMPDEST PUSH1 0x0 PUSH2 0x1619 PUSH1 0x11 DUP4 PUSH2 0x1B54 JUMP JUMPDEST SWAP2 POP PUSH2 0x1624 DUP3 PUSH2 0x1F11 JUMP JUMPDEST PUSH1 0x20 DUP3 ADD SWAP1 POP SWAP2 SWAP1 POP JUMP JUMPDEST PUSH1 0x0 PUSH2 0x163C PUSH1 0x22 DUP4 PUSH2 0x1B54 JUMP JUMPDEST SWAP2 POP PUSH2 0x1647 DUP3 PUSH2 0x1F3A JUMP JUMPDEST PUSH1 0x40 DUP3 ADD SWAP1 POP SWAP2 SWAP1 POP JUMP JUMPDEST PUSH1 0x0 PUSH2 0x165F PUSH1 0x2C DUP4 PUSH2 0x1B54 JUMP JUMPDEST SWAP2 POP PUSH2 0x166A DUP3 PUSH2 0x1F89 JUMP JUMPDEST PUSH1 0x40 DUP3 ADD SWAP1 POP SWAP2 SWAP1 POP JUMP JUMPDEST PUSH1 0x0 PUSH2 0x1682 PUSH1 0x8 DUP4 PUSH2 0x1B54 JUMP JUMPDEST SWAP2 POP PUSH2 0x168D DUP3 PUSH2 0x1FD8 JUMP JUMPDEST PUSH1 0x20 DUP3 ADD SWAP1 POP SWAP2 SWAP1 POP JUMP JUMPDEST PUSH1 0x0 PUSH2 0x16A5 PUSH1 0x3C DUP4 PUSH2 0x1B54 JUMP JUMPDEST SWAP2 POP PUSH2 0x16B0 DUP3 PUSH2 0x2001 JUMP JUMPDEST PUSH1 0x40 DUP3 ADD SWAP1 POP SWAP2 SWAP1 POP JUMP JUMPDEST PUSH1 0x0 PUSH2 0x16C8 PUSH1 0x18 DUP4 PUSH2 0x1B54 JUMP JUMPDEST SWAP2 POP PUSH2 0x16D3 DUP3 PUSH2 0x2050 JUMP JUMPDEST PUSH1 0x20 DUP3 ADD SWAP1 POP SWAP2 SWAP1 POP JUMP JUMPDEST PUSH1 0x0 PUSH2 0x16EB PUSH1 0x18 DUP4 PUSH2 0x1B54 JUMP JUMPDEST SWAP2 POP PUSH2 0x16F6 DUP3 PUSH2 0x2079 JUMP JUMPDEST PUSH1 0x20 DUP3 ADD SWAP1 POP SWAP2 SWAP1 POP JUMP JUMPDEST PUSH1 0x0 PUSH2 0x170E PUSH1 0x0 DUP4 PUSH2 0x1B49 JUMP JUMPDEST SWAP2 POP PUSH2 0x1719 DUP3 PUSH2 0x20A2 JUMP JUMPDEST PUSH1 0x0 DUP3 ADD SWAP1 POP SWAP2 SWAP1 POP JUMP JUMPDEST PUSH1 0x0 PUSH2 0x1731 PUSH1 0x28 DUP4 PUSH2 0x1B54 JUMP JUMPDEST SWAP2 POP PUSH2 0x173C DUP3 PUSH2 0x20A5 JUMP JUMPDEST PUSH1 0x40 DUP3 ADD SWAP1 POP SWAP2 SWAP1 POP JUMP JUMPDEST PUSH2 0x1750 DUP2 PUSH2 0x1C20 JUMP JUMPDEST DUP3 MSTORE POP POP JUMP JUMPDEST PUSH2 0x175F DUP2 PUSH2 0x1C20 JUMP JUMPDEST DUP3 MSTORE POP POP JUMP JUMPDEST PUSH2 0x1776 PUSH2 0x1771 DUP3 PUSH2 0x1C20 JUMP JUMPDEST PUSH2 0x1D21 JUMP JUMPDEST DUP3 MSTORE POP POP JUMP JUMPDEST PUSH2 0x1785 DUP2 PUSH2 0x1C2A JUMP JUMPDEST DUP3 MSTORE POP POP JUMP JUMPDEST PUSH1 0x0 PUSH2 0x1797 DUP3 DUP7 PUSH2 0x1481 JUMP JUMPDEST PUSH1 0x14 DUP3 ADD SWAP2 POP PUSH2 0x17A7 DUP3 DUP6 PUSH2 0x1498 JUMP JUMPDEST PUSH1 0x40 DUP3 ADD SWAP2 POP PUSH2 0x17B7 DUP3 DUP5 PUSH2 0x1765 JUMP JUMPDEST PUSH1 0x20 DUP3 ADD SWAP2 POP DUP2 SWAP1 POP SWAP5 SWAP4 POP POP POP POP JUMP JUMPDEST PUSH1 0x0 PUSH2 0x17D3 DUP3 PUSH2 0x15A3 JUMP JUMPDEST SWAP2 POP PUSH2 0x17DF DUP3 DUP5 PUSH2 0x150D JUMP JUMPDEST PUSH1 0x20 DUP3 ADD SWAP2 POP DUP2 SWAP1 POP SWAP3 SWAP2 POP POP JUMP JUMPDEST PUSH1 0x0 PUSH2 0x17F9 DUP3 PUSH2 0x1701 JUMP JUMPDEST SWAP2 POP DUP2 SWAP1 POP SWAP2 SWAP1 POP JUMP JUMPDEST PUSH1 0x0 PUSH1 0x20 DUP3 ADD SWAP1 POP PUSH2 0x1818 PUSH1 0x0 DUP4 ADD DUP5 PUSH2 0x1472 JUMP JUMPDEST SWAP3 SWAP2 POP POP JUMP JUMPDEST PUSH1 0x0 PUSH1 0x20 DUP3 ADD SWAP1 POP PUSH2 0x1833 PUSH1 0x0 DUP4 ADD DUP5 PUSH2 0x14EF JUMP JUMPDEST SWAP3 SWAP2 POP POP JUMP JUMPDEST PUSH1 0x0 PUSH1 0x80 DUP3 ADD SWAP1 POP PUSH2 0x184E PUSH1 0x0 DUP4 ADD DUP8 PUSH2 0x14FE JUMP JUMPDEST PUSH2 0x185B PUSH1 0x20 DUP4 ADD DUP7 PUSH2 0x177C JUMP JUMPDEST PUSH2 0x1868 PUSH1 0x40 DUP4 ADD DUP6 PUSH2 0x14FE JUMP JUMPDEST PUSH2 0x1875 PUSH1 0x60 DUP4 ADD DUP5 PUSH2 0x14FE JUMP JUMPDEST SWAP6 SWAP5 POP POP POP POP POP JUMP JUMPDEST PUSH1 0x0 PUSH1 0x40 DUP3 ADD SWAP1 POP DUP2 DUP2 SUB PUSH1 0x0 DUP4 ADD MSTORE PUSH2 0x1898 DUP2 DUP6 PUSH2 0x1524 JUMP JUMPDEST SWAP1 POP PUSH2 0x18A7 PUSH1 0x20 DUP4 ADD DUP5 PUSH2 0x1747 JUMP JUMPDEST SWAP4 SWAP3 POP POP POP JUMP JUMPDEST PUSH1 0x0 PUSH1 0x20 DUP3 ADD SWAP1 POP DUP2 DUP2 SUB PUSH1 0x0 DUP4 ADD MSTORE PUSH2 0x18C7 DUP2 PUSH2 0x155D JUMP JUMPDEST SWAP1 POP SWAP2 SWAP1 POP JUMP JUMPDEST PUSH1 0x0 PUSH1 0x20 DUP3 ADD SWAP1 POP DUP2 DUP2 SUB PUSH1 0x0 DUP4 ADD MSTORE PUSH2 0x18E7 DUP2 PUSH2 0x1580 JUMP JUMPDEST SWAP1 POP SWAP2 SWAP1 POP JUMP JUMPDEST PUSH1 0x0 PUSH1 0x20 DUP3 ADD SWAP1 POP DUP2 DUP2 SUB PUSH1 0x0 DUP4 ADD MSTORE PUSH2 0x1907 DUP2 PUSH2 0x15C6 JUMP JUMPDEST SWAP1 POP SWAP2 SWAP1 POP JUMP JUMPDEST PUSH1 0x0 PUSH1 0x20 DUP3 ADD SWAP1 POP DUP2 DUP2 SUB PUSH1 0x0 DUP4 ADD MSTORE PUSH2 0x1927 DUP2 PUSH2 0x15E9 JUMP JUMPDEST SWAP1 POP SWAP2 SWAP1 POP JUMP JUMPDEST PUSH1 0x0 PUSH1 0x20 DUP3 ADD SWAP1 POP DUP2 DUP2 SUB PUSH1 0x0 DUP4 ADD MSTORE PUSH2 0x1947 DUP2 PUSH2 0x160C JUMP JUMPDEST SWAP1 POP SWAP2 SWAP1 POP JUMP JUMPDEST PUSH1 0x0 PUSH1 0x20 DUP3 ADD SWAP1 POP DUP2 DUP2 SUB PUSH1 0x0 DUP4 ADD MSTORE PUSH2 0x1967 DUP2 PUSH2 0x162F JUMP JUMPDEST SWAP1 POP SWAP2 SWAP1 POP JUMP JUMPDEST PUSH1 0x0 PUSH1 0x20 DUP3 ADD SWAP1 POP DUP2 DUP2 SUB PUSH1 0x0 DUP4 ADD MSTORE PUSH2 0x1987 DUP2 PUSH2 0x1652 JUMP JUMPDEST SWAP1 POP SWAP2 SWAP1 POP JUMP JUMPDEST PUSH1 0x0 PUSH1 0x20 DUP3 ADD SWAP1 POP DUP2 DUP2 SUB PUSH1 0x0 DUP4 ADD MSTORE PUSH2 0x19A7 DUP2 PUSH2 0x1675 JUMP JUMPDEST SWAP1 POP SWAP2 SWAP1 POP JUMP JUMPDEST PUSH1 0x0 PUSH1 0x20 DUP3 ADD SWAP1 POP DUP2 DUP2 SUB PUSH1 0x0 DUP4 ADD MSTORE PUSH2 0x19C7 DUP2 PUSH2 0x1698 JUMP JUMPDEST SWAP1 POP SWAP2 SWAP1 POP JUMP JUMPDEST PUSH1 0x0 PUSH1 0x20 DUP3 ADD SWAP1 POP DUP2 DUP2 SUB PUSH1 0x0 DUP4 ADD MSTORE PUSH2 0x19E7 DUP2 PUSH2 0x16BB JUMP JUMPDEST SWAP1 POP SWAP2 SWAP1 POP JUMP JUMPDEST PUSH1 0x0 PUSH1 0x20 DUP3 ADD SWAP1 POP DUP2 DUP2 SUB PUSH1 0x0 DUP4 ADD MSTORE PUSH2 0x1A07 DUP2 PUSH2 0x16DE JUMP JUMPDEST SWAP1 POP SWAP2 SWAP1 POP JUMP JUMPDEST PUSH1 0x0 PUSH1 0x20 DUP3 ADD SWAP1 POP DUP2 DUP2 SUB PUSH1 0x0 DUP4 ADD MSTORE PUSH2 0x1A27 DUP2 PUSH2 0x1724 JUMP JUMPDEST SWAP1 POP SWAP2 SWAP1 POP JUMP JUMPDEST PUSH1 0x0 PUSH1 0x20 DUP3 ADD SWAP1 POP PUSH2 0x1A43 PUSH1 0x0 DUP4 ADD DUP5 PUSH2 0x1747 JUMP JUMPDEST SWAP3 SWAP2 POP POP JUMP JUMPDEST PUSH1 0x0 PUSH2 0x1A53 PUSH2 0x1A64 JUMP JUMPDEST SWAP1 POP PUSH2 0x1A5F DUP3 DUP3 PUSH2 0x1C79 JUMP JUMPDEST SWAP2 SWAP1 POP JUMP JUMPDEST PUSH1 0x0 PUSH1 0x40 MLOAD SWAP1 POP SWAP1 JUMP JUMPDEST PUSH1 0x0 PUSH8 0xFFFFFFFFFFFFFFFF DUP3 GT ISZERO PUSH2 0x1A89 JUMPI PUSH2 0x1A88 PUSH2 0x1DB8 JUMP JUMPDEST JUMPDEST PUSH1 0x20 DUP3 MUL SWAP1 POP SWAP2 SWAP1 POP JUMP JUMPDEST PUSH1 0x0 PUSH8 0xFFFFFFFFFFFFFFFF DUP3 GT ISZERO PUSH2 0x1AAF JUMPI PUSH2 0x1AAE PUSH2 0x1DB8 JUMP JUMPDEST JUMPDEST PUSH1 0x20 DUP3 MUL SWAP1 POP SWAP2 SWAP1 POP JUMP JUMPDEST PUSH1 0x0 PUSH8 0xFFFFFFFFFFFFFFFF DUP3 GT ISZERO PUSH2 0x1AD5 JUMPI PUSH2 0x1AD4 PUSH2 0x1DB8 JUMP JUMPDEST JUMPDEST PUSH1 0x20 DUP3 MUL SWAP1 POP SWAP2 SWAP1 POP JUMP JUMPDEST PUSH1 0x0 PUSH8 0xFFFFFFFFFFFFFFFF DUP3 GT ISZERO PUSH2 0x1AFB JUMPI PUSH2 0x1AFA PUSH2 0x1DB8 JUMP JUMPDEST JUMPDEST PUSH2 0x1B04 DUP3 PUSH2 0x1E00 JUMP JUMPDEST SWAP1 POP PUSH1 0x20 DUP2 ADD SWAP1 POP SWAP2 SWAP1 POP JUMP JUMPDEST PUSH1 0x0 DUP2 SWAP1 POP SWAP2 SWAP1 POP JUMP JUMPDEST PUSH1 0x0 PUSH1 0x2 SWAP1 POP SWAP2 SWAP1 POP JUMP JUMPDEST PUSH1 0x0 DUP2 MLOAD SWAP1 POP SWAP2 SWAP1 POP JUMP JUMPDEST PUSH1 0x0 PUSH1 0x20 DUP3 ADD SWAP1 POP SWAP2 SWAP1 POP JUMP JUMPDEST PUSH1 0x0 DUP2 SWAP1 POP SWAP3 SWAP2 POP POP JUMP JUMPDEST PUSH1 0x0 DUP2 SWAP1 POP SWAP3 SWAP2 POP POP JUMP JUMPDEST PUSH1 0x0 DUP3 DUP3 MSTORE PUSH1 0x20 DUP3 ADD SWAP1 POP SWAP3 SWAP2 POP POP JUMP JUMPDEST PUSH1 0x0 DUP2 SWAP1 POP SWAP3 SWAP2 POP POP JUMP JUMPDEST PUSH1 0x0 PUSH2 0x1B7B DUP3 PUSH2 0x1C20 JUMP JUMPDEST SWAP2 POP PUSH2 0x1B86 DUP4 PUSH2 0x1C20 JUMP JUMPDEST SWAP3 POP DUP3 PUSH32 0xFFFFFFFFFFFFFFFFFFFFFFFFFFFFFFFFFFFFFFFFFFFFFFFFFFFFFFFFFFFFFFFF SUB DUP3 GT ISZERO PUSH2 0x1BBB JUMPI PUSH2 0x1BBA PUSH2 0x1D2B JUMP JUMPDEST JUMPDEST DUP3 DUP3 ADD SWAP1 POP SWAP3 SWAP2 POP POP JUMP JUMPDEST PUSH1 0x0 PUSH2 0x1BD1 DUP3 PUSH2 0x1C00 JUMP JUMPDEST SWAP1 POP SWAP2 SWAP1 POP JUMP JUMPDEST PUSH1 0x0 PUSH2 0x1BE3 DUP3 PUSH2 0x1C00 JUMP JUMPDEST SWAP1 POP SWAP2 SWAP1 POP JUMP JUMPDEST PUSH1 0x0 DUP2 ISZERO ISZERO SWAP1 POP SWAP2 SWAP1 POP JUMP JUMPDEST PUSH1 0x0 DUP2 SWAP1 POP SWAP2 SWAP1 POP JUMP JUMPDEST PUSH1 0x0 PUSH20 0xFFFFFFFFFFFFFFFFFFFFFFFFFFFFFFFFFFFFFFFF DUP3 AND SWAP1 POP SWAP2 SWAP1 POP JUMP JUMPDEST PUSH1 0x0 DUP2 SWAP1 POP SWAP2 SWAP1 POP JUMP JUMPDEST PUSH1 0x0 PUSH1 0xFF DUP3 AND SWAP1 POP SWAP2 SWAP1 POP JUMP JUMPDEST DUP3 DUP2 DUP4 CALLDATACOPY PUSH1 0x0 DUP4 DUP4 ADD MSTORE POP POP POP JUMP JUMPDEST PUSH1 0x0 JUMPDEST DUP4 DUP2 LT ISZERO PUSH2 0x1C64 JUMPI DUP1 DUP3 ADD MLOAD DUP2 DUP5 ADD MSTORE PUSH1 0x20 DUP2 ADD SWAP1 POP PUSH2 0x1C49 JUMP JUMPDEST DUP4 DUP2 GT ISZERO PUSH2 0x1C73 JUMPI PUSH1 0x0 DUP5 DUP5 ADD MSTORE JUMPDEST POP POP POP POP JUMP JUMPDEST PUSH2 0x1C82 DUP3 PUSH2 0x1E00 JUMP JUMPDEST DUP2 ADD DUP2 DUP2 LT PUSH8 0xFFFFFFFFFFFFFFFF DUP3 GT OR ISZERO PUSH2 0x1CA1 JUMPI PUSH2 0x1CA0 PUSH2 0x1DB8 JUMP JUMPDEST JUMPDEST DUP1 PUSH1 0x40 MSTORE POP POP POP JUMP JUMPDEST PUSH1 0x0 PUSH2 0x1CB5 DUP3 PUSH2 0x1C20 JUMP JUMPDEST SWAP2 POP PUSH32 0xFFFFFFFFFFFFFFFFFFFFFFFFFFFFFFFFFFFFFFFFFFFFFFFFFFFFFFFFFFFFFFFF DUP3 EQ ISZERO PUSH2 0x1CE8 JUMPI PUSH2 0x1CE7 PUSH2 0x1D2B JUMP JUMPDEST JUMPDEST PUSH1 0x1 DUP3 ADD SWAP1 POP SWAP2 SWAP1 POP JUMP JUMPDEST PUSH1 0x0 PUSH2 0x1CFE DUP3 PUSH2 0x1D0F JUMP JUMPDEST SWAP1 POP SWAP2 SWAP1 POP JUMP JUMPDEST PUSH1 0x0 DUP2 SWAP1 POP SWAP2 SWAP1 POP JUMP JUMPDEST PUSH1 0x0 PUSH2 0x1D1A DUP3 PUSH2 0x1E11 JUMP JUMPDEST SWAP1 POP SWAP2 SWAP1 POP JUMP JUMPDEST PUSH1 0x0 DUP2 SWAP1 POP SWAP2 SWAP1 POP JUMP JUMPDEST PUSH32 0x4E487B7100000000000000000000000000000000000000000000000000000000 PUSH1 0x0 MSTORE PUSH1 0x11 PUSH1 0x4 MSTORE PUSH1 0x24 PUSH1 0x0 REVERT JUMPDEST PUSH32 0x4E487B7100000000000000000000000000000000000000000000000000000000 PUSH1 0x0 MSTORE PUSH1 0x21 PUSH1 0x4 MSTORE PUSH1 0x24 PUSH1 0x0 REVERT JUMPDEST PUSH32 0x4E487B7100000000000000000000000000000000000000000000000000000000 PUSH1 0x0 MSTORE PUSH1 0x32 PUSH1 0x4 MSTORE PUSH1 0x24 PUSH1 0x0 REVERT JUMPDEST PUSH32 0x4E487B7100000000000000000000000000000000000000000000000000000000 PUSH1 0x0 MSTORE PUSH1 0x41 PUSH1 0x4 MSTORE PUSH1 0x24 PUSH1 0x0 REVERT JUMPDEST PUSH1 0x0 DUP1 REVERT JUMPDEST PUSH1 0x0 DUP1 REVERT JUMPDEST PUSH1 0x0 DUP1 REVERT JUMPDEST PUSH1 0x0 DUP1 REVERT JUMPDEST PUSH1 0x0 DUP1 REVERT JUMPDEST PUSH1 0x0 PUSH1 0x1F NOT PUSH1 0x1F DUP4 ADD AND SWAP1 POP SWAP2 SWAP1 POP JUMP JUMPDEST PUSH1 0x0 DUP2 PUSH1 0x60 SHL SWAP1 POP SWAP2 SWAP1 POP JUMP JUMPDEST PUSH32 0x45434453413A20696E76616C6964207369676E61747572650000000000000000 PUSH1 0x0 DUP3 ADD MSTORE POP JUMP JUMPDEST PUSH32 0x45434453413A20696E76616C6964207369676E6174757265206C656E67746800 PUSH1 0x0 DUP3 ADD MSTORE POP JUMP JUMPDEST PUSH32 0x19457468657265756D205369676E6564204D6573736167653A0A333200000000 PUSH1 0x0 DUP3 ADD MSTORE POP JUMP JUMPDEST PUSH32 0x4661696C656420746F2073656E64204574686572000000000000000000000000 PUSH1 0x0 DUP3 ADD MSTORE POP JUMP JUMPDEST PUSH32 0x4368616C6C656E676520706572696F6420686173206E6F742065787069726564 PUSH1 0x0 DUP3 ADD MSTORE PUSH32 0x2079657400000000000000000000000000000000000000000000000000000000 PUSH1 0x20 DUP3 ADD MSTORE POP JUMP JUMPDEST PUSH32 0x496E76616C6964207369676E6174757265000000000000000000000000000000 PUSH1 0x0 DUP3 ADD MSTORE POP JUMP JUMPDEST PUSH32 0x45434453413A20696E76616C6964207369676E6174757265202773272076616C PUSH1 0x0 DUP3 ADD MSTORE PUSH32 0x7565000000000000000000000000000000000000000000000000000000000000 PUSH1 0x20 DUP3 ADD MSTORE POP JUMP JUMPDEST PUSH32 0x4E6F6E6365206D7573742062652067726561746572207468616E207468652063 PUSH1 0x0 DUP3 ADD MSTORE PUSH32 0x757272656E74206E6F6E63650000000000000000000000000000000000000000 PUSH1 0x20 DUP3 ADD MSTORE POP JUMP JUMPDEST PUSH32 0x4E6F742075736572000000000000000000000000000000000000000000000000 PUSH1 0x0 DUP3 ADD MSTORE POP JUMP JUMPDEST PUSH32 0x62616C616E6365206F6620636F6E7472616374206D757374206265203E3D2074 PUSH1 0x0 DUP3 ADD MSTORE PUSH32 0x6F2074686520746F74616C2062616C616E6365206F6620757365727300000000 PUSH1 0x20 DUP3 ADD MSTORE POP JUMP JUMPDEST PUSH32 0x45787069726174696F6E206D757374206265203E206E6F770000000000000000 PUSH1 0x0 DUP3 ADD MSTORE POP JUMP JUMPDEST PUSH32 0x45787069726564206368616C6C656E676520706572696F640000000000000000 PUSH1 0x0 DUP3 ADD MSTORE POP JUMP JUMPDEST POP JUMP JUMPDEST PUSH32 0x4465706F73697420616D6F756E74206D75737420626520677265617465722074 PUSH1 0x0 DUP3 ADD MSTORE PUSH32 0x68616E207A65726F000000000000000000000000000000000000000000000000 PUSH1 0x20 DUP3 ADD MSTORE POP JUMP JUMPDEST PUSH2 0x20FD DUP2 PUSH2 0x1BC6 JUMP JUMPDEST DUP2 EQ PUSH2 0x2108 JUMPI PUSH1 0x0 DUP1 REVERT JUMPDEST POP JUMP JUMPDEST PUSH2 0x2114 DUP2 PUSH2 0x1C20 JUMP JUMPDEST DUP2 EQ PUSH2 0x211F JUMPI PUSH1 0x0 DUP1 REVERT JUMPDEST POP JUMP INVALID LOG2 PUSH5 0x6970667358 0x22 SLT KECCAK256 SAR GASPRICE 0xDC 0x5C DUP4 0xCC 0x25 PUSH32 0x6C5179BB23C3E3240EEE657B526CBAF0CAA7298E7F52064D64736F6C63430008 MOD STOP CALLER "
		},
		"gasEstimates": {
			"creation": {
				"codeDepositCost": "1707200",
				"executionCost": "infinite",
				"totalCost": "infinite"
			},
			"external": {
				"balances(address)": "2837",
				"challengeExit(uint256[2],uint256,bytes[2])": "infinite",
				"challengePeriod()": "2539",
				"deposit()": "infinite",
				"expiresAt()": "2429",
				"isUser(address)": "2934",
				"nonce()": "2473",
				"setExpiresAt(uint256)": "infinite",
				"users(uint256)": "2850",
				"verify(bytes[2],address,address[2],uint256[2],uint256)": "infinite",
				"withdraw()": "infinite"
			}
		},
		"methodIdentifiers": {
			"balances(address)": "27e235e3",
			"challengeExit(uint256[2],uint256,bytes[2])": "a0ff4999",
			"challengePeriod()": "f3f480d9",
			"deposit()": "d0e30db0",
			"expiresAt()": "8622a689",
			"isUser(address)": "4209fff1",
			"nonce()": "affed0e0",
			"setExpiresAt(uint256)": "d279af3a",
			"users(uint256)": "365b98b2",
			"verify(bytes[2],address,address[2],uint256[2],uint256)": "21e66868",
			"withdraw()": "3ccfd60b"
		}
	},
	"abi": [
		{
			"inputs": [
				{
					"internalType": "address payable[2]",
					"name": "_users",
					"type": "address[2]"
				},
				{
					"internalType": "uint256[2]",
					"name": "_balances",
					"type": "uint256[2]"
				},
				{
					"internalType": "uint256",
					"name": "_expiresAt",
					"type": "uint256"
				},
				{
					"internalType": "uint256",
					"name": "_challengePeriod",
					"type": "uint256"
				}
			],
			"stateMutability": "payable",
			"type": "constructor"
		},
		{
			"anonymous": false,
			"inputs": [
				{
					"indexed": true,
					"internalType": "address",
					"name": "sender",
					"type": "address"
				},
				{
					"indexed": false,
					"internalType": "uint256",
					"name": "nonce",
					"type": "uint256"
				}
			],
			"name": "ChallengeExit",
			"type": "event"
		},
		{
			"anonymous": false,
			"inputs": [
				{
					"indexed": true,
					"internalType": "address",
					"name": "from",
					"type": "address"
				},
				{
					"indexed": false,
					"internalType": "uint256",
					"name": "amount",
					"type": "uint256"
				}
			],
			"name": "Deposit",
			"type": "event"
		},
		{
			"anonymous": false,
			"inputs": [
				{
					"indexed": false,
					"internalType": "uint256",
					"name": "expiresAt",
					"type": "uint256"
				}
			],
			"name": "ExpiresAtChanged",
			"type": "event"
		},
		{
			"anonymous": false,
			"inputs": [
				{
					"indexed": true,
					"internalType": "address",
					"name": "to",
					"type": "address"
				},
				{
					"indexed": false,
					"internalType": "uint256",
					"name": "amount",
					"type": "uint256"
				}
			],
			"name": "Withdraw",
			"type": "event"
		},
		{
			"inputs": [
				{
					"internalType": "address",
					"name": "",
					"type": "address"
				}
			],
			"name": "balances",
			"outputs": [
				{
					"internalType": "uint256",
					"name": "",
					"type": "uint256"
				}
			],
			"stateMutability": "view",
			"type": "function"
		},
		{
			"inputs": [
				{
					"internalType": "uint256[2]",
					"name": "_balances",
					"type": "uint256[2]"
				},
				{
					"internalType": "uint256",
					"name": "_nonce",
					"type": "uint256"
				},
				{
					"internalType": "bytes[2]",
					"name": "_signatures",
					"type": "bytes[2]"
				}
			],
			"name": "challengeExit",
			"outputs": [],
			"stateMutability": "nonpayable",
			"type": "function"
		},
		{
			"inputs": [],
			"name": "challengePeriod",
			"outputs": [
				{
					"internalType": "uint256",
					"name": "",
					"type": "uint256"
				}
			],
			"stateMutability": "view",
			"type": "function"
		},
		{
			"inputs": [],
			"name": "deposit",
			"outputs": [],
			"stateMutability": "payable",
			"type": "function"
		},
		{
			"inputs": [],
			"name": "expiresAt",
			"outputs": [
				{
					"internalType": "uint256",
					"name": "",
					"type": "uint256"
				}
			],
			"stateMutability": "view",
			"type": "function"
		},
		{
			"inputs": [
				{
					"internalType": "address",
					"name": "",
					"type": "address"
				}
			],
			"name": "isUser",
			"outputs": [
				{
					"internalType": "bool",
					"name": "",
					"type": "bool"
				}
			],
			"stateMutability": "view",
			"type": "function"
		},
		{
			"inputs": [],
			"name": "nonce",
			"outputs": [
				{
					"internalType": "uint256",
					"name": "",
					"type": "uint256"
				}
			],
			"stateMutability": "view",
			"type": "function"
		},
		{
			"inputs": [
				{
					"internalType": "uint256",
					"name": "_newExpiresAt",
					"type": "uint256"
				}
			],
			"name": "setExpiresAt",
			"outputs": [],
			"stateMutability": "nonpayable",
			"type": "function"
		},
		{
			"inputs": [
				{
					"internalType": "uint256",
					"name": "",
					"type": "uint256"
				}
			],
			"name": "users",
			"outputs": [
				{
					"internalType": "address payable",
					"name": "",
					"type": "address"
				}
			],
			"stateMutability": "view",
			"type": "function"
		},
		{
			"inputs": [
				{
					"internalType": "bytes[2]",
					"name": "_signatures",
					"type": "bytes[2]"
				},
				{
					"internalType": "address",
					"name": "_contract",
					"type": "address"
				},
				{
					"internalType": "address[2]",
					"name": "_signers",
					"type": "address[2]"
				},
				{
					"internalType": "uint256[2]",
					"name": "_balances",
					"type": "uint256[2]"
				},
				{
					"internalType": "uint256",
					"name": "_nonce",
					"type": "uint256"
				}
			],
			"name": "verify",
			"outputs": [
				{
					"internalType": "bool",
					"name": "",
					"type": "bool"
				}
			],
			"stateMutability": "pure",
			"type": "function"
		},
		{
			"inputs": [],
			"name": "withdraw",
			"outputs": [],
			"stateMutability": "nonpayable",
			"type": "function"
		}
	]
}